{
  "contractName": "NewContract",
  "abi": [
    {
      "inputs": [],
      "stateMutability": "nonpayable",
      "type": "constructor"
    },
    {
      "anonymous": false,
      "inputs": [
        {
          "indexed": true,
          "internalType": "address",
          "name": "owner",
          "type": "address"
        },
        {
          "indexed": true,
          "internalType": "address",
          "name": "approved",
          "type": "address"
        },
        {
          "indexed": true,
          "internalType": "uint256",
          "name": "tokenId",
          "type": "uint256"
        }
      ],
      "name": "Approval",
      "type": "event"
    },
    {
      "anonymous": false,
      "inputs": [
        {
          "indexed": true,
          "internalType": "address",
          "name": "owner",
          "type": "address"
        },
        {
          "indexed": true,
          "internalType": "address",
          "name": "operator",
          "type": "address"
        },
        {
          "indexed": false,
          "internalType": "bool",
          "name": "approved",
          "type": "bool"
        }
      ],
      "name": "ApprovalForAll",
      "type": "event"
    },
    {
      "anonymous": false,
      "inputs": [
        {
          "indexed": true,
          "internalType": "address",
          "name": "previousOwner",
          "type": "address"
        },
        {
          "indexed": true,
          "internalType": "address",
          "name": "newOwner",
          "type": "address"
        }
      ],
      "name": "OwnershipTransferred",
      "type": "event"
    },
    {
      "anonymous": false,
      "inputs": [
        {
          "indexed": true,
          "internalType": "address",
          "name": "from",
          "type": "address"
        },
        {
          "indexed": true,
          "internalType": "address",
          "name": "to",
          "type": "address"
        },
        {
          "indexed": true,
          "internalType": "uint256",
          "name": "tokenId",
          "type": "uint256"
        }
      ],
      "name": "Transfer",
      "type": "event"
    },
    {
      "inputs": [
        {
          "internalType": "address",
          "name": "to",
          "type": "address"
        },
        {
          "internalType": "uint256",
          "name": "tokenId",
          "type": "uint256"
        }
      ],
      "name": "approve",
      "outputs": [],
      "stateMutability": "nonpayable",
      "type": "function"
    },
    {
      "inputs": [
        {
          "internalType": "address",
          "name": "owner",
          "type": "address"
        }
      ],
      "name": "balanceOf",
      "outputs": [
        {
          "internalType": "uint256",
          "name": "",
          "type": "uint256"
        }
      ],
      "stateMutability": "view",
      "type": "function"
    },
    {
      "inputs": [
        {
          "internalType": "uint256",
          "name": "tokenId",
          "type": "uint256"
        }
      ],
      "name": "getApproved",
      "outputs": [
        {
          "internalType": "address",
          "name": "",
          "type": "address"
        }
      ],
      "stateMutability": "view",
      "type": "function"
    },
    {
      "inputs": [
        {
          "internalType": "address",
          "name": "owner",
          "type": "address"
        },
        {
          "internalType": "address",
          "name": "operator",
          "type": "address"
        }
      ],
      "name": "isApprovedForAll",
      "outputs": [
        {
          "internalType": "bool",
          "name": "",
          "type": "bool"
        }
      ],
      "stateMutability": "view",
      "type": "function"
    },
    {
      "inputs": [],
      "name": "name",
      "outputs": [
        {
          "internalType": "string",
          "name": "",
          "type": "string"
        }
      ],
      "stateMutability": "view",
      "type": "function"
    },
    {
      "inputs": [],
      "name": "owner",
      "outputs": [
        {
          "internalType": "address",
          "name": "",
          "type": "address"
        }
      ],
      "stateMutability": "view",
      "type": "function"
    },
    {
      "inputs": [
        {
          "internalType": "uint256",
          "name": "tokenId",
          "type": "uint256"
        }
      ],
      "name": "ownerOf",
      "outputs": [
        {
          "internalType": "address",
          "name": "",
          "type": "address"
        }
      ],
      "stateMutability": "view",
      "type": "function"
    },
    {
      "inputs": [],
      "name": "renounceOwnership",
      "outputs": [],
      "stateMutability": "nonpayable",
      "type": "function"
    },
    {
      "inputs": [
        {
          "internalType": "address",
          "name": "from",
          "type": "address"
        },
        {
          "internalType": "address",
          "name": "to",
          "type": "address"
        },
        {
          "internalType": "uint256",
          "name": "tokenId",
          "type": "uint256"
        }
      ],
      "name": "safeTransferFrom",
      "outputs": [],
      "stateMutability": "nonpayable",
      "type": "function"
    },
    {
      "inputs": [
        {
          "internalType": "address",
          "name": "from",
          "type": "address"
        },
        {
          "internalType": "address",
          "name": "to",
          "type": "address"
        },
        {
          "internalType": "uint256",
          "name": "tokenId",
          "type": "uint256"
        },
        {
          "internalType": "bytes",
          "name": "_data",
          "type": "bytes"
        }
      ],
      "name": "safeTransferFrom",
      "outputs": [],
      "stateMutability": "nonpayable",
      "type": "function"
    },
    {
      "inputs": [
        {
          "internalType": "address",
          "name": "operator",
          "type": "address"
        },
        {
          "internalType": "bool",
          "name": "approved",
          "type": "bool"
        }
      ],
      "name": "setApprovalForAll",
      "outputs": [],
      "stateMutability": "nonpayable",
      "type": "function"
    },
    {
      "inputs": [
        {
          "internalType": "bytes4",
          "name": "interfaceId",
          "type": "bytes4"
        }
      ],
      "name": "supportsInterface",
      "outputs": [
        {
          "internalType": "bool",
          "name": "",
          "type": "bool"
        }
      ],
      "stateMutability": "view",
      "type": "function"
    },
    {
      "inputs": [],
      "name": "symbol",
      "outputs": [
        {
          "internalType": "string",
          "name": "",
          "type": "string"
        }
      ],
      "stateMutability": "view",
      "type": "function"
    },
    {
      "inputs": [
        {
          "internalType": "uint256",
          "name": "tokenId",
          "type": "uint256"
        }
      ],
      "name": "tokenURI",
      "outputs": [
        {
          "internalType": "string",
          "name": "",
          "type": "string"
        }
      ],
      "stateMutability": "view",
      "type": "function"
    },
    {
      "inputs": [
        {
          "internalType": "address",
          "name": "from",
          "type": "address"
        },
        {
          "internalType": "address",
          "name": "to",
          "type": "address"
        },
        {
          "internalType": "uint256",
          "name": "tokenId",
          "type": "uint256"
        }
      ],
      "name": "transferFrom",
      "outputs": [],
      "stateMutability": "nonpayable",
      "type": "function"
    },
    {
      "inputs": [
        {
          "internalType": "address",
          "name": "newOwner",
          "type": "address"
        }
      ],
      "name": "transferOwnership",
      "outputs": [],
      "stateMutability": "nonpayable",
      "type": "function"
    },
    {
      "inputs": [
        {
          "internalType": "address",
          "name": "recipient",
          "type": "address"
        },
        {
          "internalType": "string",
          "name": "tokenURI",
          "type": "string"
        }
      ],
      "name": "mintNFT",
      "outputs": [
        {
          "internalType": "uint256",
          "name": "",
          "type": "uint256"
        }
      ],
      "stateMutability": "nonpayable",
      "type": "function"
    },
    {
      "inputs": [
        {
          "internalType": "uint256",
          "name": "tokenId",
          "type": "uint256"
        },
        {
          "internalType": "string",
          "name": "_tokenURI",
          "type": "string"
        }
      ],
      "name": "setTokenURI",
      "outputs": [],
      "stateMutability": "nonpayable",
      "type": "function"
    },
    {
      "inputs": [],
      "name": "getTokenCount",
      "outputs": [
        {
          "internalType": "uint256",
          "name": "",
          "type": "uint256"
        }
      ],
      "stateMutability": "view",
      "type": "function"
    }
  ],
  "bytecode": "0x60806040523480156200001157600080fd5b506040518060400160405280600c81526020017f416b20546563686e6963616c00000000000000000000000000000000000000008152506040518060400160405280600381526020017f414b540000000000000000000000000000000000000000000000000000000000815250816000908051906020019062000096929190620001a6565b508060019080519060200190620000af929190620001a6565b505050620000d2620000c6620000d860201b60201c565b620000e060201b60201c565b620002bb565b600033905090565b6000600760009054906101000a900473ffffffffffffffffffffffffffffffffffffffff16905081600760006101000a81548173ffffffffffffffffffffffffffffffffffffffff021916908373ffffffffffffffffffffffffffffffffffffffff1602179055508173ffffffffffffffffffffffffffffffffffffffff168173ffffffffffffffffffffffffffffffffffffffff167f8be0079c531659141344cd1fd0a4f28419497f9722a3daafe3b4186f6b6457e060405160405180910390a35050565b828054620001b49062000285565b90600052602060002090601f016020900481019282620001d8576000855562000224565b82601f10620001f357805160ff191683800117855562000224565b8280016001018555821562000224579182015b828111156200022357825182559160200191906001019062000206565b5b50905062000233919062000237565b5090565b5b808211156200025257600081600090555060010162000238565b5090565b7f4e487b7100000000000000000000000000000000000000000000000000000000600052602260045260246000fd5b600060028204905060018216806200029e57607f821691505b60208210811415620002b557620002b462000256565b5b50919050565b6131a880620002cb6000396000f3fe608060405234801561001057600080fd5b50600436106101215760003560e01c8063715018a6116100ad578063b88d4fde11610071578063b88d4fde146102f4578063c87b56dd14610310578063e985e9c514610340578063eacabe1414610370578063f2fde38b146103a057610121565b8063715018a61461027457806378a895671461027e5780638da5cb5b1461029c57806395d89b41146102ba578063a22cb465146102d857610121565b8063162094c4116100f4578063162094c4146101c057806323b872dd146101dc57806342842e0e146101f85780636352211e1461021457806370a082311461024457610121565b806301ffc9a71461012657806306fdde0314610156578063081812fc14610174578063095ea7b3146101a4575b600080fd5b610140600480360381019061013b9190611db0565b6103bc565b60405161014d9190611df8565b60405180910390f35b61015e61049e565b60405161016b9190611eac565b60405180910390f35b61018e60048036038101906101899190611f04565b610530565b60405161019b9190611f72565b60405180910390f35b6101be60048036038101906101b99190611fb9565b6105b5565b005b6101da60048036038101906101d5919061212e565b6106cd565b005b6101f660048036038101906101f1919061218a565b6107a7565b005b610212600480360381019061020d919061218a565b610807565b005b61022e60048036038101906102299190611f04565b610827565b60405161023b9190611f72565b60405180910390f35b61025e600480360381019061025991906121dd565b6108d9565b60405161026b9190612219565b60405180910390f35b61027c610991565b005b610286610a19565b6040516102939190612219565b60405180910390f35b6102a4610a2a565b6040516102b19190611f72565b60405180910390f35b6102c2610a54565b6040516102cf9190611eac565b60405180910390f35b6102f260048036038101906102ed9190612260565b610ae6565b005b61030e60048036038101906103099190612341565b610afc565b005b61032a60048036038101906103259190611f04565b610b5e565b6040516103379190611eac565b60405180910390f35b61035a600480360381019061035591906123c4565b610cb0565b6040516103679190611df8565b60405180910390f35b61038a60048036038101906103859190612404565b610d44565b6040516103979190612219565b60405180910390f35b6103ba60048036038101906103b591906121dd565b610df8565b005b60007f80ac58cd000000000000000000000000000000000000000000000000000000007bffffffffffffffffffffffffffffffffffffffffffffffffffffffff1916827bffffffffffffffffffffffffffffffffffffffffffffffffffffffff1916148061048757507f5b5e139f000000000000000000000000000000000000000000000000000000007bffffffffffffffffffffffffffffffffffffffffffffffffffffffff1916827bffffffffffffffffffffffffffffffffffffffffffffffffffffffff1916145b80610497575061049682610ef0565b5b9050919050565b6060600080546104ad9061248f565b80601f01602080910402602001604051908101604052809291908181526020018280546104d99061248f565b80156105265780601f106104fb57610100808354040283529160200191610526565b820191906000526020600020905b81548152906001019060200180831161050957829003601f168201915b5050505050905090565b600061053b82610f5a565b61057a576040517f08c379a000000000000000000000000000000000000000000000000000000000815260040161057190612533565b60405180910390fd5b6004600083815260200190815260200160002060009054906101000a900473ffffffffffffffffffffffffffffffffffffffff169050919050565b60006105c082610827565b90508073ffffffffffffffffffffffffffffffffffffffff168373ffffffffffffffffffffffffffffffffffffffff161415610631576040517f08c379a0000000000000000000000000000000000000000000000000000000008152600401610628906125c5565b60405180910390fd5b8073ffffffffffffffffffffffffffffffffffffffff16610650610fc6565b73ffffffffffffffffffffffffffffffffffffffff16148061067f575061067e81610679610fc6565b610cb0565b5b6106be576040517f08c379a00000000000000000000000000000000000000000000000000000000081526004016106b590612657565b60405180910390fd5b6106c88383610fce565b505050565b6106d5610fc6565b73ffffffffffffffffffffffffffffffffffffffff166106f3610a2a565b73ffffffffffffffffffffffffffffffffffffffff1614610749576040517f08c379a0000000000000000000000000000000000000000000000000000000008152600401610740906126c3565b60405180910390fd5b61075a610754610fc6565b83611087565b610799576040517f08c379a000000000000000000000000000000000000000000000000000000000815260040161079090612755565b60405180910390fd5b6107a38282611165565b5050565b6107b86107b2610fc6565b82611087565b6107f7576040517f08c379a00000000000000000000000000000000000000000000000000000000081526004016107ee90612755565b60405180910390fd5b6108028383836111d9565b505050565b61082283838360405180602001604052806000815250610afc565b505050565b6000806002600084815260200190815260200160002060009054906101000a900473ffffffffffffffffffffffffffffffffffffffff169050600073ffffffffffffffffffffffffffffffffffffffff168173ffffffffffffffffffffffffffffffffffffffff1614156108d0576040517f08c379a00000000000000000000000000000000000000000000000000000000081526004016108c7906127e7565b60405180910390fd5b80915050919050565b60008073ffffffffffffffffffffffffffffffffffffffff168273ffffffffffffffffffffffffffffffffffffffff16141561094a576040517f08c379a000000000000000000000000000000000000000000000000000000000815260040161094190612879565b60405180910390fd5b600360008373ffffffffffffffffffffffffffffffffffffffff1673ffffffffffffffffffffffffffffffffffffffff168152602001908152602001600020549050919050565b610999610fc6565b73ffffffffffffffffffffffffffffffffffffffff166109b7610a2a565b73ffffffffffffffffffffffffffffffffffffffff1614610a0d576040517f08c379a0000000000000000000000000000000000000000000000000000000008152600401610a04906126c3565b60405180910390fd5b610a176000611440565b565b6000610a256008611506565b905090565b6000600760009054906101000a900473ffffffffffffffffffffffffffffffffffffffff16905090565b606060018054610a639061248f565b80601f0160208091040260200160405190810160405280929190818152602001828054610a8f9061248f565b8015610adc5780601f10610ab157610100808354040283529160200191610adc565b820191906000526020600020905b815481529060010190602001808311610abf57829003601f168201915b5050505050905090565b610af8610af1610fc6565b8383611514565b5050565b610b0d610b07610fc6565b83611087565b610b4c576040517f08c379a0000000000000000000000000000000000000000000000000000000008152600401610b4390612755565b60405180910390fd5b610b5884848484611681565b50505050565b6060610b6982610f5a565b610ba8576040517f08c379a0000000000000000000000000000000000000000000000000000000008152600401610b9f9061290b565b60405180910390fd5b6000600660008481526020019081526020016000208054610bc89061248f565b80601f0160208091040260200160405190810160405280929190818152602001828054610bf49061248f565b8015610c415780601f10610c1657610100808354040283529160200191610c41565b820191906000526020600020905b815481529060010190602001808311610c2457829003601f168201915b505050505090506000610c526116dd565b9050600081511415610c68578192505050610cab565b600082511115610c9d578082604051602001610c85929190612967565b60405160208183030381529060405292505050610cab565b610ca6846116f4565b925050505b919050565b6000600560008473ffffffffffffffffffffffffffffffffffffffff1673ffffffffffffffffffffffffffffffffffffffff16815260200190815260200160002060008373ffffffffffffffffffffffffffffffffffffffff1673ffffffffffffffffffffffffffffffffffffffff16815260200190815260200160002060009054906101000a900460ff16905092915050565b6000610d4e610fc6565b73ffffffffffffffffffffffffffffffffffffffff16610d6c610a2a565b73ffffffffffffffffffffffffffffffffffffffff1614610dc2576040517f08c379a0000000000000000000000000000000000000000000000000000000008152600401610db9906126c3565b60405180910390fd5b610dcc600861179b565b6000610dd86008611506565b9050610de484826117b1565b610dee8184611165565b8091505092915050565b610e00610fc6565b73ffffffffffffffffffffffffffffffffffffffff16610e1e610a2a565b73ffffffffffffffffffffffffffffffffffffffff1614610e74576040517f08c379a0000000000000000000000000000000000000000000000000000000008152600401610e6b906126c3565b60405180910390fd5b600073ffffffffffffffffffffffffffffffffffffffff168173ffffffffffffffffffffffffffffffffffffffff161415610ee4576040517f08c379a0000000000000000000000000000000000000000000000000000000008152600401610edb906129fd565b60405180910390fd5b610eed81611440565b50565b60007f01ffc9a7000000000000000000000000000000000000000000000000000000007bffffffffffffffffffffffffffffffffffffffffffffffffffffffff1916827bffffffffffffffffffffffffffffffffffffffffffffffffffffffff1916149050919050565b60008073ffffffffffffffffffffffffffffffffffffffff166002600084815260200190815260200160002060009054906101000a900473ffffffffffffffffffffffffffffffffffffffff1673ffffffffffffffffffffffffffffffffffffffff1614159050919050565b600033905090565b816004600083815260200190815260200160002060006101000a81548173ffffffffffffffffffffffffffffffffffffffff021916908373ffffffffffffffffffffffffffffffffffffffff160217905550808273ffffffffffffffffffffffffffffffffffffffff1661104183610827565b73ffffffffffffffffffffffffffffffffffffffff167f8c5be1e5ebec7d5bd14f71427d1e84f3dd0314c0f7b2291e5b200ac8c7c3b92560405160405180910390a45050565b600061109282610f5a565b6110d1576040517f08c379a00000000000000000000000000000000000000000000000000000000081526004016110c890612a8f565b60405180910390fd5b60006110dc83610827565b90508073ffffffffffffffffffffffffffffffffffffffff168473ffffffffffffffffffffffffffffffffffffffff16148061114b57508373ffffffffffffffffffffffffffffffffffffffff1661113384610530565b73ffffffffffffffffffffffffffffffffffffffff16145b8061115c575061115b8185610cb0565b5b91505092915050565b61116e82610f5a565b6111ad576040517f08c379a00000000000000000000000000000000000000000000000000000000081526004016111a490612b21565b60405180910390fd5b806006600084815260200190815260200160002090805190602001906111d4929190611ca1565b505050565b8273ffffffffffffffffffffffffffffffffffffffff166111f982610827565b73ffffffffffffffffffffffffffffffffffffffff161461124f576040517f08c379a000000000000000000000000000000000000000000000000000000000815260040161124690612bb3565b60405180910390fd5b600073ffffffffffffffffffffffffffffffffffffffff168273ffffffffffffffffffffffffffffffffffffffff1614156112bf576040517f08c379a00000000000000000000000000000000000000000000000000000000081526004016112b690612c45565b60405180910390fd5b6112ca83838361198b565b6112d5600082610fce565b6001600360008573ffffffffffffffffffffffffffffffffffffffff1673ffffffffffffffffffffffffffffffffffffffff16815260200190815260200160002060008282546113259190612c94565b925050819055506001600360008473ffffffffffffffffffffffffffffffffffffffff1673ffffffffffffffffffffffffffffffffffffffff168152602001908152602001600020600082825461137c9190612cc8565b92505081905550816002600083815260200190815260200160002060006101000a81548173ffffffffffffffffffffffffffffffffffffffff021916908373ffffffffffffffffffffffffffffffffffffffff160217905550808273ffffffffffffffffffffffffffffffffffffffff168473ffffffffffffffffffffffffffffffffffffffff167fddf252ad1be2c89b69c2b068fc378daa952ba7f163c4a11628f55a4df523b3ef60405160405180910390a461143b838383611990565b505050565b6000600760009054906101000a900473ffffffffffffffffffffffffffffffffffffffff16905081600760006101000a81548173ffffffffffffffffffffffffffffffffffffffff021916908373ffffffffffffffffffffffffffffffffffffffff1602179055508173ffffffffffffffffffffffffffffffffffffffff168173ffffffffffffffffffffffffffffffffffffffff167f8be0079c531659141344cd1fd0a4f28419497f9722a3daafe3b4186f6b6457e060405160405180910390a35050565b600081600001549050919050565b8173ffffffffffffffffffffffffffffffffffffffff168373ffffffffffffffffffffffffffffffffffffffff161415611583576040517f08c379a000000000000000000000000000000000000000000000000000000000815260040161157a90612d6a565b60405180910390fd5b80600560008573ffffffffffffffffffffffffffffffffffffffff1673ffffffffffffffffffffffffffffffffffffffff16815260200190815260200160002060008473ffffffffffffffffffffffffffffffffffffffff1673ffffffffffffffffffffffffffffffffffffffff16815260200190815260200160002060006101000a81548160ff0219169083151502179055508173ffffffffffffffffffffffffffffffffffffffff168373ffffffffffffffffffffffffffffffffffffffff167f17307eab39ab6107e8899845ad3d59bd9653f200f220920489ca2b5937696c31836040516116749190611df8565b60405180910390a3505050565b61168c8484846111d9565b61169884848484611995565b6116d7576040517f08c379a00000000000000000000000000000000000000000000000000000000081526004016116ce90612dfc565b60405180910390fd5b50505050565b606060405180602001604052806000815250905090565b60606116ff82610f5a565b61173e576040517f08c379a000000000000000000000000000000000000000000000000000000000815260040161173590612e8e565b60405180910390fd5b60006117486116dd565b905060008151116117685760405180602001604052806000815250611793565b8061177284611b1d565b604051602001611783929190612967565b6040516020818303038152906040525b915050919050565b6001816000016000828254019250508190555050565b600073ffffffffffffffffffffffffffffffffffffffff168273ffffffffffffffffffffffffffffffffffffffff161415611821576040517f08c379a000000000000000000000000000000000000000000000000000000000815260040161181890612efa565b60405180910390fd5b61182a81610f5a565b1561186a576040517f08c379a000000000000000000000000000000000000000000000000000000000815260040161186190612f66565b60405180910390fd5b6118766000838361198b565b6001600360008473ffffffffffffffffffffffffffffffffffffffff1673ffffffffffffffffffffffffffffffffffffffff16815260200190815260200160002060008282546118c69190612cc8565b92505081905550816002600083815260200190815260200160002060006101000a81548173ffffffffffffffffffffffffffffffffffffffff021916908373ffffffffffffffffffffffffffffffffffffffff160217905550808273ffffffffffffffffffffffffffffffffffffffff16600073ffffffffffffffffffffffffffffffffffffffff167fddf252ad1be2c89b69c2b068fc378daa952ba7f163c4a11628f55a4df523b3ef60405160405180910390a461198760008383611990565b5050565b505050565b505050565b60006119b68473ffffffffffffffffffffffffffffffffffffffff16611c7e565b15611b10578373ffffffffffffffffffffffffffffffffffffffff1663150b7a026119df610fc6565b8786866040518563ffffffff1660e01b8152600401611a019493929190612fdb565b6020604051808303816000875af1925050508015611a3d57506040513d601f19601f82011682018060405250810190611a3a919061303c565b60015b611ac0573d8060008114611a6d576040519150601f19603f3d011682016040523d82523d6000602084013e611a72565b606091505b50600081511415611ab8576040517f08c379a0000000000000000000000000000000000000000000000000000000008152600401611aaf90612dfc565b60405180910390fd5b805181602001fd5b63150b7a0260e01b7bffffffffffffffffffffffffffffffffffffffffffffffffffffffff1916817bffffffffffffffffffffffffffffffffffffffffffffffffffffffff191614915050611b15565b600190505b949350505050565b60606000821415611b65576040518060400160405280600181526020017f30000000000000000000000000000000000000000000000000000000000000008152509050611c79565b600082905060005b60008214611b97578080611b8090613069565b915050600a82611b9091906130e1565b9150611b6d565b60008167ffffffffffffffff811115611bb357611bb2612003565b5b6040519080825280601f01601f191660200182016040528015611be55781602001600182028036833780820191505090505b5090505b60008514611c7257600182611bfe9190612c94565b9150600a85611c0d9190613112565b6030611c199190612cc8565b60f81b818381518110611c2f57611c2e613143565b5b60200101907effffffffffffffffffffffffffffffffffffffffffffffffffffffffffffff1916908160001a905350600a85611c6b91906130e1565b9450611be9565b8093505050505b919050565b6000808273ffffffffffffffffffffffffffffffffffffffff163b119050919050565b828054611cad9061248f565b90600052602060002090601f016020900481019282611ccf5760008555611d16565b82601f10611ce857805160ff1916838001178555611d16565b82800160010185558215611d16579182015b82811115611d15578251825591602001919060010190611cfa565b5b509050611d239190611d27565b5090565b5b80821115611d40576000816000905550600101611d28565b5090565b6000604051905090565b600080fd5b600080fd5b60007fffffffff0000000000000000000000000000000000000000000000000000000082169050919050565b611d8d81611d58565b8114611d9857600080fd5b50565b600081359050611daa81611d84565b92915050565b600060208284031215611dc657611dc5611d4e565b5b6000611dd484828501611d9b565b91505092915050565b60008115159050919050565b611df281611ddd565b82525050565b6000602082019050611e0d6000830184611de9565b92915050565b600081519050919050565b600082825260208201905092915050565b60005b83811015611e4d578082015181840152602081019050611e32565b83811115611e5c576000848401525b50505050565b6000601f19601f8301169050919050565b6000611e7e82611e13565b611e888185611e1e565b9350611e98818560208601611e2f565b611ea181611e62565b840191505092915050565b60006020820190508181036000830152611ec68184611e73565b905092915050565b6000819050919050565b611ee181611ece565b8114611eec57600080fd5b50565b600081359050611efe81611ed8565b92915050565b600060208284031215611f1a57611f19611d4e565b5b6000611f2884828501611eef565b91505092915050565b600073ffffffffffffffffffffffffffffffffffffffff82169050919050565b6000611f5c82611f31565b9050919050565b611f6c81611f51565b82525050565b6000602082019050611f876000830184611f63565b92915050565b611f9681611f51565b8114611fa157600080fd5b50565b600081359050611fb381611f8d565b92915050565b60008060408385031215611fd057611fcf611d4e565b5b6000611fde85828601611fa4565b9250506020611fef85828601611eef565b9150509250929050565b600080fd5b600080fd5b7f4e487b7100000000000000000000000000000000000000000000000000000000600052604160045260246000fd5b61203b82611e62565b810181811067ffffffffffffffff8211171561205a57612059612003565b5b80604052505050565b600061206d611d44565b90506120798282612032565b919050565b600067ffffffffffffffff82111561209957612098612003565b5b6120a282611e62565b9050602081019050919050565b82818337600083830152505050565b60006120d16120cc8461207e565b612063565b9050828152602081018484840111156120ed576120ec611ffe565b5b6120f88482856120af565b509392505050565b600082601f83011261211557612114611ff9565b5b81356121258482602086016120be565b91505092915050565b6000806040838503121561214557612144611d4e565b5b600061215385828601611eef565b925050602083013567ffffffffffffffff81111561217457612173611d53565b5b61218085828601612100565b9150509250929050565b6000806000606084860312156121a3576121a2611d4e565b5b60006121b186828701611fa4565b93505060206121c286828701611fa4565b92505060406121d386828701611eef565b9150509250925092565b6000602082840312156121f3576121f2611d4e565b5b600061220184828501611fa4565b91505092915050565b61221381611ece565b82525050565b600060208201905061222e600083018461220a565b92915050565b61223d81611ddd565b811461224857600080fd5b50565b60008135905061225a81612234565b92915050565b6000806040838503121561227757612276611d4e565b5b600061228585828601611fa4565b92505060206122968582860161224b565b9150509250929050565b600067ffffffffffffffff8211156122bb576122ba612003565b5b6122c482611e62565b9050602081019050919050565b60006122e46122df846122a0565b612063565b905082815260208101848484011115612300576122ff611ffe565b5b61230b8482856120af565b509392505050565b600082601f83011261232857612327611ff9565b5b81356123388482602086016122d1565b91505092915050565b6000806000806080858703121561235b5761235a611d4e565b5b600061236987828801611fa4565b945050602061237a87828801611fa4565b935050604061238b87828801611eef565b925050606085013567ffffffffffffffff8111156123ac576123ab611d53565b5b6123b887828801612313565b91505092959194509250565b600080604083850312156123db576123da611d4e565b5b60006123e985828601611fa4565b92505060206123fa85828601611fa4565b9150509250929050565b6000806040838503121561241b5761241a611d4e565b5b600061242985828601611fa4565b925050602083013567ffffffffffffffff81111561244a57612449611d53565b5b61245685828601612100565b9150509250929050565b7f4e487b7100000000000000000000000000000000000000000000000000000000600052602260045260246000fd5b600060028204905060018216806124a757607f821691505b602082108114156124bb576124ba612460565b5b50919050565b7f4552433732313a20617070726f76656420717565727920666f72206e6f6e657860008201527f697374656e7420746f6b656e0000000000000000000000000000000000000000602082015250565b600061251d602c83611e1e565b9150612528826124c1565b604082019050919050565b6000602082019050818103600083015261254c81612510565b9050919050565b7f4552433732313a20617070726f76616c20746f2063757272656e74206f776e6560008201527f7200000000000000000000000000000000000000000000000000000000000000602082015250565b60006125af602183611e1e565b91506125ba82612553565b604082019050919050565b600060208201905081810360008301526125de816125a2565b9050919050565b7f4552433732313a20617070726f76652063616c6c6572206973206e6f74206f7760008201527f6e6572206e6f7220617070726f76656420666f7220616c6c0000000000000000602082015250565b6000612641603883611e1e565b915061264c826125e5565b604082019050919050565b6000602082019050818103600083015261267081612634565b9050919050565b7f4f776e61626c653a2063616c6c6572206973206e6f7420746865206f776e6572600082015250565b60006126ad602083611e1e565b91506126b882612677565b602082019050919050565b600060208201905081810360008301526126dc816126a0565b9050919050565b7f4552433732313a207472616e736665722063616c6c6572206973206e6f74206f60008201527f776e6572206e6f7220617070726f766564000000000000000000000000000000602082015250565b600061273f603183611e1e565b915061274a826126e3565b604082019050919050565b6000602082019050818103600083015261276e81612732565b9050919050565b7f4552433732313a206f776e657220717565727920666f72206e6f6e657869737460008201527f656e7420746f6b656e0000000000000000000000000000000000000000000000602082015250565b60006127d1602983611e1e565b91506127dc82612775565b604082019050919050565b60006020820190508181036000830152612800816127c4565b9050919050565b7f4552433732313a2062616c616e636520717565727920666f7220746865207a6560008201527f726f206164647265737300000000000000000000000000000000000000000000602082015250565b6000612863602a83611e1e565b915061286e82612807565b604082019050919050565b6000602082019050818103600083015261289281612856565b9050919050565b7f45524337323155524953746f726167653a2055524920717565727920666f722060008201527f6e6f6e6578697374656e7420746f6b656e000000000000000000000000000000602082015250565b60006128f5603183611e1e565b915061290082612899565b604082019050919050565b60006020820190508181036000830152612924816128e8565b9050919050565b600081905092915050565b600061294182611e13565b61294b818561292b565b935061295b818560208601611e2f565b80840191505092915050565b60006129738285612936565b915061297f8284612936565b91508190509392505050565b7f4f776e61626c653a206e6577206f776e657220697320746865207a65726f206160008201527f6464726573730000000000000000000000000000000000000000000000000000602082015250565b60006129e7602683611e1e565b91506129f28261298b565b604082019050919050565b60006020820190508181036000830152612a16816129da565b9050919050565b7f4552433732313a206f70657261746f7220717565727920666f72206e6f6e657860008201527f697374656e7420746f6b656e0000000000000000000000000000000000000000602082015250565b6000612a79602c83611e1e565b9150612a8482612a1d565b604082019050919050565b60006020820190508181036000830152612aa881612a6c565b9050919050565b7f45524337323155524953746f726167653a2055524920736574206f66206e6f6e60008201527f6578697374656e7420746f6b656e000000000000000000000000000000000000602082015250565b6000612b0b602e83611e1e565b9150612b1682612aaf565b604082019050919050565b60006020820190508181036000830152612b3a81612afe565b9050919050565b7f4552433732313a207472616e736665722066726f6d20696e636f72726563742060008201527f6f776e6572000000000000000000000000000000000000000000000000000000602082015250565b6000612b9d602583611e1e565b9150612ba882612b41565b604082019050919050565b60006020820190508181036000830152612bcc81612b90565b9050919050565b7f4552433732313a207472616e7366657220746f20746865207a65726f2061646460008201527f7265737300000000000000000000000000000000000000000000000000000000602082015250565b6000612c2f602483611e1e565b9150612c3a82612bd3565b604082019050919050565b60006020820190508181036000830152612c5e81612c22565b9050919050565b7f4e487b7100000000000000000000000000000000000000000000000000000000600052601160045260246000fd5b6000612c9f82611ece565b9150612caa83611ece565b925082821015612cbd57612cbc612c65565b5b828203905092915050565b6000612cd382611ece565b9150612cde83611ece565b9250827fffffffffffffffffffffffffffffffffffffffffffffffffffffffffffffffff03821115612d1357612d12612c65565b5b828201905092915050565b7f4552433732313a20617070726f766520746f2063616c6c657200000000000000600082015250565b6000612d54601983611e1e565b9150612d5f82612d1e565b602082019050919050565b60006020820190508181036000830152612d8381612d47565b9050919050565b7f4552433732313a207472616e7366657220746f206e6f6e20455243373231526560008201527f63656976657220696d706c656d656e7465720000000000000000000000000000602082015250565b6000612de6603283611e1e565b9150612df182612d8a565b604082019050919050565b60006020820190508181036000830152612e1581612dd9565b9050919050565b7f4552433732314d657461646174613a2055524920717565727920666f72206e6f60008201527f6e6578697374656e7420746f6b656e0000000000000000000000000000000000602082015250565b6000612e78602f83611e1e565b9150612e8382612e1c565b604082019050919050565b60006020820190508181036000830152612ea781612e6b565b9050919050565b7f4552433732313a206d696e7420746f20746865207a65726f2061646472657373600082015250565b6000612ee4602083611e1e565b9150612eef82612eae565b602082019050919050565b60006020820190508181036000830152612f1381612ed7565b9050919050565b7f4552433732313a20746f6b656e20616c7265616479206d696e74656400000000600082015250565b6000612f50601c83611e1e565b9150612f5b82612f1a565b602082019050919050565b60006020820190508181036000830152612f7f81612f43565b9050919050565b600081519050919050565b600082825260208201905092915050565b6000612fad82612f86565b612fb78185612f91565b9350612fc7818560208601611e2f565b612fd081611e62565b840191505092915050565b6000608082019050612ff06000830187611f63565b612ffd6020830186611f63565b61300a604083018561220a565b818103606083015261301c8184612fa2565b905095945050505050565b60008151905061303681611d84565b92915050565b60006020828403121561305257613051611d4e565b5b600061306084828501613027565b91505092915050565b600061307482611ece565b91507fffffffffffffffffffffffffffffffffffffffffffffffffffffffffffffffff8214156130a7576130a6612c65565b5b600182019050919050565b7f4e487b7100000000000000000000000000000000000000000000000000000000600052601260045260246000fd5b60006130ec82611ece565b91506130f783611ece565b925082613107576131066130b2565b5b828204905092915050565b600061311d82611ece565b915061312883611ece565b925082613138576131376130b2565b5b828206905092915050565b7f4e487b7100000000000000000000000000000000000000000000000000000000600052603260045260246000fdfea2646970667358221220c923ca93dd3ed037d7d8967d5a4a8a0ad2fa3b96bee4847f6462638ccc2c170564736f6c634300080b0033",
  "immutableReferences": {},
  "source": "//Contract based on [https://docs.openzeppelin.com/contracts/3.x/erc721](https://docs.openzeppelin.com/contracts/3.x/erc721)\r\n// SPDX-License-Identifier: MIT\r\npragma solidity >=0.4.22 <0.9.0;\r\n\r\n\r\nimport \"@openzeppelin/contracts/token/ERC721/ERC721.sol\";\r\nimport \"@openzeppelin/contracts/utils/Counters.sol\";\r\nimport \"@openzeppelin/contracts/access/Ownable.sol\";\r\nimport \"@openzeppelin/contracts/token/ERC721/extensions/ERC721URIStorage.sol\";\r\n\r\ncontract NewContract is ERC721URIStorage, Ownable {\r\n   using Counters for Counters.Counter;\r\n   Counters.Counter private _tokenIds;\r\n\r\n   constructor() ERC721(\"Ak Technical\", \"AKT\") {}\r\n\r\n   function mintNFT(address recipient, string memory tokenURI)\r\n      public\r\n      onlyOwner returns (uint256)\r\n   {\r\n      _tokenIds.increment();\r\n\r\n      uint256 newItemId = _tokenIds.current();\r\n      _mint(recipient, newItemId);\r\n      _setTokenURI(newItemId, tokenURI);\r\n      return newItemId;\r\n   }\r\n\r\n   function setTokenURI(uint256 tokenId, string memory _tokenURI) public  onlyOwner{\r\n      require(\r\n         _isApprovedOrOwner(_msgSender(), tokenId),\r\n         \"ERC721: transfer caller is not owner nor approved\"\r\n      );\r\n      _setTokenURI(tokenId, _tokenURI);\r\n   }\r\n\r\n   function getTokenCount() public view returns (uint256){\r\n      return _tokenIds.current();\r\n   }\r\n}",
  "sourcePath": "D:\\Block Chain\\NFTMarketPlace\\contracts\\NewContract.sol",
  "compiler": {
    "name": "solc",
    "version": "0.8.11+commit.d7f03943.Emscripten.clang"
  },
  "schemaVersion": "3.4.5",
  "updatedAt": "2022-04-03T10:12:53.344Z",
  "devdoc": {
    "kind": "dev",
    "methods": {
      "approve(address,uint256)": {
        "details": "See {IERC721-approve}."
      },
      "balanceOf(address)": {
        "details": "See {IERC721-balanceOf}."
      },
      "getApproved(uint256)": {
        "details": "See {IERC721-getApproved}."
      },
      "isApprovedForAll(address,address)": {
        "details": "See {IERC721-isApprovedForAll}."
      },
      "name()": {
        "details": "See {IERC721Metadata-name}."
      },
      "owner()": {
        "details": "Returns the address of the current owner."
      },
      "ownerOf(uint256)": {
        "details": "See {IERC721-ownerOf}."
      },
      "renounceOwnership()": {
        "details": "Leaves the contract without owner. It will not be possible to call `onlyOwner` functions anymore. Can only be called by the current owner. NOTE: Renouncing ownership will leave the contract without an owner, thereby removing any functionality that is only available to the owner."
      },
      "safeTransferFrom(address,address,uint256)": {
        "details": "See {IERC721-safeTransferFrom}."
      },
      "safeTransferFrom(address,address,uint256,bytes)": {
        "details": "See {IERC721-safeTransferFrom}."
      },
      "setApprovalForAll(address,bool)": {
        "details": "See {IERC721-setApprovalForAll}."
      },
      "supportsInterface(bytes4)": {
        "details": "See {IERC165-supportsInterface}."
      },
      "symbol()": {
        "details": "See {IERC721Metadata-symbol}."
      },
      "tokenURI(uint256)": {
        "details": "See {IERC721Metadata-tokenURI}."
      },
      "transferFrom(address,address,uint256)": {
        "details": "See {IERC721-transferFrom}."
      },
      "transferOwnership(address)": {
        "details": "Transfers ownership of the contract to a new account (`newOwner`). Can only be called by the current owner."
      }
    },
    "version": 1
  },
  "userdoc": {
    "kind": "user",
    "methods": {},
    "version": 1
  }
}