{
  "contractName": "NFTMarketplace",
  "abi": [
    {
      "inputs": [],
      "stateMutability": "nonpayable",
      "type": "constructor"
    },
    {
      "anonymous": false,
      "inputs": [
        {
          "indexed": true,
          "internalType": "address",
          "name": "owner",
          "type": "address"
        },
        {
          "indexed": true,
          "internalType": "address",
          "name": "approved",
          "type": "address"
        },
        {
          "indexed": true,
          "internalType": "uint256",
          "name": "tokenId",
          "type": "uint256"
        }
      ],
      "name": "Approval",
      "type": "event"
    },
    {
      "anonymous": false,
      "inputs": [
        {
          "indexed": true,
          "internalType": "address",
          "name": "owner",
          "type": "address"
        },
        {
          "indexed": true,
          "internalType": "address",
          "name": "operator",
          "type": "address"
        },
        {
          "indexed": false,
          "internalType": "bool",
          "name": "approved",
          "type": "bool"
        }
      ],
      "name": "ApprovalForAll",
      "type": "event"
    },
    {
      "anonymous": false,
      "inputs": [
        {
          "indexed": true,
          "internalType": "uint256",
          "name": "ItemId",
          "type": "uint256"
        },
        {
          "indexed": true,
          "internalType": "uint256",
          "name": "tokenId",
          "type": "uint256"
        },
        {
          "indexed": false,
          "internalType": "address",
          "name": "seller",
          "type": "address"
        },
        {
          "indexed": false,
          "internalType": "address",
          "name": "owner",
          "type": "address"
        },
        {
          "indexed": false,
          "internalType": "uint256",
          "name": "price",
          "type": "uint256"
        },
        {
          "indexed": false,
          "internalType": "bool",
          "name": "sold",
          "type": "bool"
        }
      ],
      "name": "MarketItemCreated",
      "type": "event"
    },
    {
      "anonymous": false,
      "inputs": [
        {
          "indexed": true,
          "internalType": "address",
          "name": "from",
          "type": "address"
        },
        {
          "indexed": true,
          "internalType": "address",
          "name": "to",
          "type": "address"
        },
        {
          "indexed": true,
          "internalType": "uint256",
          "name": "tokenId",
          "type": "uint256"
        }
      ],
      "name": "Transfer",
      "type": "event"
    },
    {
      "inputs": [
        {
          "internalType": "address",
          "name": "to",
          "type": "address"
        },
        {
          "internalType": "uint256",
          "name": "tokenId",
          "type": "uint256"
        }
      ],
      "name": "approve",
      "outputs": [],
      "stateMutability": "nonpayable",
      "type": "function"
    },
    {
      "inputs": [
        {
          "internalType": "address",
          "name": "owner",
          "type": "address"
        }
      ],
      "name": "balanceOf",
      "outputs": [
        {
          "internalType": "uint256",
          "name": "",
          "type": "uint256"
        }
      ],
      "stateMutability": "view",
      "type": "function",
      "constant": true
    },
    {
      "inputs": [
        {
          "internalType": "uint256",
          "name": "tokenId",
          "type": "uint256"
        }
      ],
      "name": "getApproved",
      "outputs": [
        {
          "internalType": "address",
          "name": "",
          "type": "address"
        }
      ],
      "stateMutability": "view",
      "type": "function",
      "constant": true
    },
    {
      "inputs": [
        {
          "internalType": "address",
          "name": "owner",
          "type": "address"
        },
        {
          "internalType": "address",
          "name": "operator",
          "type": "address"
        }
      ],
      "name": "isApprovedForAll",
      "outputs": [
        {
          "internalType": "bool",
          "name": "",
          "type": "bool"
        }
      ],
      "stateMutability": "view",
      "type": "function",
      "constant": true
    },
    {
      "inputs": [],
      "name": "name",
      "outputs": [
        {
          "internalType": "string",
          "name": "",
          "type": "string"
        }
      ],
      "stateMutability": "view",
      "type": "function",
      "constant": true
    },
    {
      "inputs": [
        {
          "internalType": "uint256",
          "name": "tokenId",
          "type": "uint256"
        }
      ],
      "name": "ownerOf",
      "outputs": [
        {
          "internalType": "address",
          "name": "",
          "type": "address"
        }
      ],
      "stateMutability": "view",
      "type": "function",
      "constant": true
    },
    {
      "inputs": [
        {
          "internalType": "address",
          "name": "from",
          "type": "address"
        },
        {
          "internalType": "address",
          "name": "to",
          "type": "address"
        },
        {
          "internalType": "uint256",
          "name": "tokenId",
          "type": "uint256"
        }
      ],
      "name": "safeTransferFrom",
      "outputs": [],
      "stateMutability": "nonpayable",
      "type": "function"
    },
    {
      "inputs": [
        {
          "internalType": "address",
          "name": "from",
          "type": "address"
        },
        {
          "internalType": "address",
          "name": "to",
          "type": "address"
        },
        {
          "internalType": "uint256",
          "name": "tokenId",
          "type": "uint256"
        },
        {
          "internalType": "bytes",
          "name": "_data",
          "type": "bytes"
        }
      ],
      "name": "safeTransferFrom",
      "outputs": [],
      "stateMutability": "nonpayable",
      "type": "function"
    },
    {
      "inputs": [
        {
          "internalType": "address",
          "name": "operator",
          "type": "address"
        },
        {
          "internalType": "bool",
          "name": "approved",
          "type": "bool"
        }
      ],
      "name": "setApprovalForAll",
      "outputs": [],
      "stateMutability": "nonpayable",
      "type": "function"
    },
    {
      "inputs": [
        {
          "internalType": "bytes4",
          "name": "interfaceId",
          "type": "bytes4"
        }
      ],
      "name": "supportsInterface",
      "outputs": [
        {
          "internalType": "bool",
          "name": "",
          "type": "bool"
        }
      ],
      "stateMutability": "view",
      "type": "function",
      "constant": true
    },
    {
      "inputs": [],
      "name": "symbol",
      "outputs": [
        {
          "internalType": "string",
          "name": "",
          "type": "string"
        }
      ],
      "stateMutability": "view",
      "type": "function",
      "constant": true
    },
    {
      "inputs": [
        {
          "internalType": "uint256",
          "name": "tokenId",
          "type": "uint256"
        }
      ],
      "name": "tokenURI",
      "outputs": [
        {
          "internalType": "string",
          "name": "",
          "type": "string"
        }
      ],
      "stateMutability": "view",
      "type": "function",
      "constant": true
    },
    {
      "inputs": [
        {
          "internalType": "address",
          "name": "from",
          "type": "address"
        },
        {
          "internalType": "address",
          "name": "to",
          "type": "address"
        },
        {
          "internalType": "uint256",
          "name": "tokenId",
          "type": "uint256"
        }
      ],
      "name": "transferFrom",
      "outputs": [],
      "stateMutability": "nonpayable",
      "type": "function"
    },
    {
      "inputs": [
        {
          "internalType": "address",
          "name": "creator",
          "type": "address"
        },
        {
          "internalType": "uint256",
          "name": "_listingPrice",
          "type": "uint256"
        }
      ],
      "name": "updateListingPrice",
      "outputs": [],
      "stateMutability": "payable",
      "type": "function",
      "payable": true
    },
    {
      "inputs": [],
      "name": "getListingPrice",
      "outputs": [
        {
          "internalType": "uint256",
          "name": "",
          "type": "uint256"
        }
      ],
      "stateMutability": "view",
      "type": "function",
      "constant": true
    },
    {
      "inputs": [],
      "name": "getTokenCount",
      "outputs": [
        {
          "internalType": "uint256",
          "name": "",
          "type": "uint256"
        }
      ],
      "stateMutability": "view",
      "type": "function",
      "constant": true
    },
    {
      "inputs": [],
      "name": "getItemCount",
      "outputs": [
        {
          "internalType": "uint256",
          "name": "",
          "type": "uint256"
        }
      ],
      "stateMutability": "view",
      "type": "function",
      "constant": true
    },
    {
      "inputs": [
        {
          "internalType": "string",
          "name": "tokenURI",
          "type": "string"
        }
      ],
      "name": "mintNFT",
      "outputs": [
        {
          "internalType": "uint256",
          "name": "",
          "type": "uint256"
        }
      ],
      "stateMutability": "payable",
      "type": "function",
      "payable": true
    },
    {
      "inputs": [
        {
          "internalType": "uint256",
          "name": "tokenId",
          "type": "uint256"
        },
        {
          "internalType": "uint256",
          "name": "price",
          "type": "uint256"
        }
      ],
      "name": "createMarketItem",
      "outputs": [],
      "stateMutability": "payable",
      "type": "function",
      "payable": true
    },
    {
      "inputs": [
        {
          "internalType": "uint256",
          "name": "itemId",
          "type": "uint256"
        },
        {
          "internalType": "uint256",
          "name": "price",
          "type": "uint256"
        }
      ],
      "name": "resellToken",
      "outputs": [],
      "stateMutability": "payable",
      "type": "function",
      "payable": true
    },
    {
      "inputs": [
        {
          "internalType": "uint256",
          "name": "itemId",
          "type": "uint256"
        }
      ],
      "name": "createMarketSale",
      "outputs": [],
      "stateMutability": "payable",
      "type": "function",
      "payable": true
    },
    {
      "inputs": [],
      "name": "fetchMarketItems",
      "outputs": [
        {
          "components": [
            {
              "internalType": "uint256",
              "name": "ItemId",
              "type": "uint256"
            },
            {
              "internalType": "uint256",
              "name": "tokenId",
              "type": "uint256"
            },
            {
              "internalType": "address payable",
              "name": "seller",
              "type": "address"
            },
            {
              "internalType": "address payable",
              "name": "owner",
              "type": "address"
            },
            {
              "internalType": "uint256",
              "name": "price",
              "type": "uint256"
            },
            {
              "internalType": "bool",
              "name": "sold",
              "type": "bool"
            }
          ],
          "internalType": "struct NFTMarketplace.MarketItem[]",
          "name": "",
          "type": "tuple[]"
        }
      ],
      "stateMutability": "view",
      "type": "function",
      "constant": true
    },
    {
      "inputs": [
        {
          "internalType": "uint256",
          "name": "itemId",
          "type": "uint256"
        }
      ],
      "name": "fetchItem",
      "outputs": [
        {
          "components": [
            {
              "internalType": "uint256",
              "name": "ItemId",
              "type": "uint256"
            },
            {
              "internalType": "uint256",
              "name": "tokenId",
              "type": "uint256"
            },
            {
              "internalType": "address payable",
              "name": "seller",
              "type": "address"
            },
            {
              "internalType": "address payable",
              "name": "owner",
              "type": "address"
            },
            {
              "internalType": "uint256",
              "name": "price",
              "type": "uint256"
            },
            {
              "internalType": "bool",
              "name": "sold",
              "type": "bool"
            }
          ],
          "internalType": "struct NFTMarketplace.MarketItem",
          "name": "",
          "type": "tuple"
        }
      ],
      "stateMutability": "view",
      "type": "function",
      "constant": true
    },
    {
      "inputs": [],
      "name": "fetchMyNFTs",
      "outputs": [
        {
          "components": [
            {
              "internalType": "uint256",
              "name": "ItemId",
              "type": "uint256"
            },
            {
              "internalType": "uint256",
              "name": "tokenId",
              "type": "uint256"
            },
            {
              "internalType": "address payable",
              "name": "seller",
              "type": "address"
            },
            {
              "internalType": "address payable",
              "name": "owner",
              "type": "address"
            },
            {
              "internalType": "uint256",
              "name": "price",
              "type": "uint256"
            },
            {
              "internalType": "bool",
              "name": "sold",
              "type": "bool"
            }
          ],
          "internalType": "struct NFTMarketplace.MarketItem[]",
          "name": "",
          "type": "tuple[]"
        }
      ],
      "stateMutability": "view",
      "type": "function",
      "constant": true
    },
    {
      "inputs": [],
      "name": "fetchItemsListed",
      "outputs": [
        {
          "components": [
            {
              "internalType": "uint256",
              "name": "ItemId",
              "type": "uint256"
            },
            {
              "internalType": "uint256",
              "name": "tokenId",
              "type": "uint256"
            },
            {
              "internalType": "address payable",
              "name": "seller",
              "type": "address"
            },
            {
              "internalType": "address payable",
              "name": "owner",
              "type": "address"
            },
            {
              "internalType": "uint256",
              "name": "price",
              "type": "uint256"
            },
            {
              "internalType": "bool",
              "name": "sold",
              "type": "bool"
            }
          ],
          "internalType": "struct NFTMarketplace.MarketItem[]",
          "name": "",
          "type": "tuple[]"
        }
      ],
      "stateMutability": "view",
      "type": "function",
      "constant": true
    }
  ],
  "bytecode": "0x60806040526658d15e17628000600a553480156200001c57600080fd5b506040518060400160405280600e81526020017f4e46544d61726b6574706c6163650000000000000000000000000000000000008152506040518060400160405280600381526020017f4e4d5000000000000000000000000000000000000000000000000000000000008152508160009080519060200190620000a192919062000104565b508060019080519060200190620000ba92919062000104565b50505033600b60006101000a81548173ffffffffffffffffffffffffffffffffffffffff021916908373ffffffffffffffffffffffffffffffffffffffff16021790555062000219565b8280546200011290620001e3565b90600052602060002090601f01602090048101928262000136576000855562000182565b82601f106200015157805160ff191683800117855562000182565b8280016001018555821562000182579182015b828111156200018157825182559160200191906001019062000164565b5b50905062000191919062000195565b5090565b5b80821115620001b057600081600090555060010162000196565b5090565b7f4e487b7100000000000000000000000000000000000000000000000000000000600052602260045260246000fd5b60006002820490506001821680620001fc57607f821691505b60208210811415620002135762000212620001b4565b5b50919050565b61478180620002296000396000f3fe6080604052600436106101665760003560e01c80636e472aec116100d1578063ad4b9cfb1161008a578063c87b56dd11610064578063c87b56dd14610515578063e219fc7514610552578063e985e9c51461056e578063fb37e883146105ab57610166565b8063ad4b9cfb14610493578063b88d4fde146104d0578063be9af536146104f957610166565b80636e472aec1461039057806370a08231146103ac5780637749cf23146103e957806378a895671461041457806395d89b411461043f578063a22cb4651461046a57610166565b8063202e374011610123578063202e37401461028f57806323b872dd146102ba578063361c1995146102e357806342842e0e146102ff57806345f8fa80146103285780636352211e1461035357610166565b806301ffc9a71461016b57806306fdde03146101a8578063081812fc146101d3578063095ea7b3146102105780630f08efe01461023957806312e8558514610264575b600080fd5b34801561017757600080fd5b50610192600480360381019061018d9190612f30565b6105db565b60405161019f9190612f78565b60405180910390f35b3480156101b457600080fd5b506101bd6106bd565b6040516101ca919061302c565b60405180910390f35b3480156101df57600080fd5b506101fa60048036038101906101f59190613084565b61074f565b60405161020791906130f2565b60405180910390f35b34801561021c57600080fd5b5061023760048036038101906102329190613139565b6107d4565b005b34801561024557600080fd5b5061024e6108ec565b60405161025b91906132e2565b60405180910390f35b34801561027057600080fd5b50610279610b5f565b6040516102869190613313565b60405180910390f35b34801561029b57600080fd5b506102a4610b69565b6040516102b191906132e2565b60405180910390f35b3480156102c657600080fd5b506102e160048036038101906102dc919061332e565b610e61565b005b6102fd60048036038101906102f89190613381565b610ec1565b005b34801561030b57600080fd5b506103266004803603810190610321919061332e565b611159565b005b34801561033457600080fd5b5061033d611179565b60405161034a91906132e2565b60405180910390f35b34801561035f57600080fd5b5061037a60048036038101906103759190613084565b611471565b60405161038791906130f2565b60405180910390f35b6103aa60048036038101906103a59190613139565b611523565b005b3480156103b857600080fd5b506103d360048036038101906103ce91906133c1565b6115be565b6040516103e09190613313565b60405180910390f35b3480156103f557600080fd5b506103fe611676565b60405161040b9190613313565b60405180910390f35b34801561042057600080fd5b50610429611687565b6040516104369190613313565b60405180910390f35b34801561044b57600080fd5b50610454611698565b604051610461919061302c565b60405180910390f35b34801561047657600080fd5b50610491600480360381019061048c919061341a565b61172a565b005b34801561049f57600080fd5b506104ba60048036038101906104b59190613084565b611740565b6040516104c791906134d5565b60405180910390f35b3480156104dc57600080fd5b506104f760048036038101906104f29190613625565b611858565b005b610513600480360381019061050e9190613084565b6118ba565b005b34801561052157600080fd5b5061053c60048036038101906105379190613084565b611b2e565b604051610549919061302c565b60405180910390f35b61056c60048036038101906105679190613381565b611c80565b005b34801561057a57600080fd5b50610595600480360381019061059091906136a8565b611efc565b6040516105a29190612f78565b60405180910390f35b6105c560048036038101906105c09190613789565b611f90565b6040516105d29190613313565b60405180910390f35b60007f80ac58cd000000000000000000000000000000000000000000000000000000007bffffffffffffffffffffffffffffffffffffffffffffffffffffffff1916827bffffffffffffffffffffffffffffffffffffffffffffffffffffffff191614806106a657507f5b5e139f000000000000000000000000000000000000000000000000000000007bffffffffffffffffffffffffffffffffffffffffffffffffffffffff1916827bffffffffffffffffffffffffffffffffffffffffffffffffffffffff1916145b806106b657506106b582612076565b5b9050919050565b6060600080546106cc90613801565b80601f01602080910402602001604051908101604052809291908181526020018280546106f890613801565b80156107455780601f1061071a57610100808354040283529160200191610745565b820191906000526020600020905b81548152906001019060200180831161072857829003601f168201915b5050505050905090565b600061075a826120e0565b610799576040517f08c379a0000000000000000000000000000000000000000000000000000000008152600401610790906138a5565b60405180910390fd5b6004600083815260200190815260200160002060009054906101000a900473ffffffffffffffffffffffffffffffffffffffff169050919050565b60006107df82611471565b90508073ffffffffffffffffffffffffffffffffffffffff168373ffffffffffffffffffffffffffffffffffffffff161415610850576040517f08c379a000000000000000000000000000000000000000000000000000000000815260040161084790613937565b60405180910390fd5b8073ffffffffffffffffffffffffffffffffffffffff1661086f61214c565b73ffffffffffffffffffffffffffffffffffffffff16148061089e575061089d8161089861214c565b611efc565b5b6108dd576040517f08c379a00000000000000000000000000000000000000000000000000000000081526004016108d4906139c9565b60405180910390fd5b6108e78383612154565b505050565b606060006108fa600861220d565b90506000610908600961220d565b610912600861220d565b61091c9190613a18565b90506000808267ffffffffffffffff81111561093b5761093a6134fa565b5b60405190808252806020026020018201604052801561097457816020015b610961612dbd565b8152602001906001900390816109595790505b50905060005b84811015610b54573073ffffffffffffffffffffffffffffffffffffffff16600c60006001846109aa9190613a4c565b815260200190815260200160002060030160009054906101000a900473ffffffffffffffffffffffffffffffffffffffff1673ffffffffffffffffffffffffffffffffffffffff161415610b41576000600182610a079190613a4c565b90506000600c60008381526020019081526020016000209050806040518060c001604052908160008201548152602001600182015481526020016002820160009054906101000a900473ffffffffffffffffffffffffffffffffffffffff1673ffffffffffffffffffffffffffffffffffffffff1673ffffffffffffffffffffffffffffffffffffffff1681526020016003820160009054906101000a900473ffffffffffffffffffffffffffffffffffffffff1673ffffffffffffffffffffffffffffffffffffffff1673ffffffffffffffffffffffffffffffffffffffff168152602001600482015481526020016005820160009054906101000a900460ff161515151581525050848681518110610b2457610b23613aa2565b5b6020026020010181905250600185610b3c9190613a4c565b945050505b8080610b4c90613ad1565b91505061097a565b508094505050505090565b6000600a54905090565b60606000610b77600861220d565b905060008060005b83811015610c20573373ffffffffffffffffffffffffffffffffffffffff16600c6000600184610baf9190613a4c565b815260200190815260200160002060030160009054906101000a900473ffffffffffffffffffffffffffffffffffffffff1673ffffffffffffffffffffffffffffffffffffffff161415610c0d57600183610c0a9190613a4c565b92505b8080610c1890613ad1565b915050610b7f565b5060008267ffffffffffffffff811115610c3d57610c3c6134fa565b5b604051908082528060200260200182016040528015610c7657816020015b610c63612dbd565b815260200190600190039081610c5b5790505b50905060005b84811015610e56573373ffffffffffffffffffffffffffffffffffffffff16600c6000600184610cac9190613a4c565b815260200190815260200160002060030160009054906101000a900473ffffffffffffffffffffffffffffffffffffffff1673ffffffffffffffffffffffffffffffffffffffff161415610e43576000600182610d099190613a4c565b90506000600c60008381526020019081526020016000209050806040518060c001604052908160008201548152602001600182015481526020016002820160009054906101000a900473ffffffffffffffffffffffffffffffffffffffff1673ffffffffffffffffffffffffffffffffffffffff1673ffffffffffffffffffffffffffffffffffffffff1681526020016003820160009054906101000a900473ffffffffffffffffffffffffffffffffffffffff1673ffffffffffffffffffffffffffffffffffffffff1673ffffffffffffffffffffffffffffffffffffffff168152602001600482015481526020016005820160009054906101000a900460ff161515151581525050848681518110610e2657610e25613aa2565b5b6020026020010181905250600185610e3e9190613a4c565b945050505b8080610e4e90613ad1565b915050610c7c565b508094505050505090565b610e72610e6c61214c565b8261221b565b610eb1576040517f08c379a0000000000000000000000000000000000000000000000000000000008152600401610ea890613b8c565b60405180910390fd5b610ebc8383836122f9565b505050565b60008111610f04576040517f08c379a0000000000000000000000000000000000000000000000000000000008152600401610efb90613bf8565b60405180910390fd5b600a543414610f48576040517f08c379a0000000000000000000000000000000000000000000000000000000008152600401610f3f90613c8a565b60405180910390fd5b610f526008612560565b6000610f5e600861220d565b90506040518060c001604052808281526020018481526020013373ffffffffffffffffffffffffffffffffffffffff1681526020013073ffffffffffffffffffffffffffffffffffffffff16815260200183815260200160001515815250600c6000838152602001908152602001600020600082015181600001556020820151816001015560408201518160020160006101000a81548173ffffffffffffffffffffffffffffffffffffffff021916908373ffffffffffffffffffffffffffffffffffffffff16021790555060608201518160030160006101000a81548173ffffffffffffffffffffffffffffffffffffffff021916908373ffffffffffffffffffffffffffffffffffffffff1602179055506080820151816004015560a08201518160050160006101000a81548160ff0219169083151502179055509050506110a93330856122f9565b600b60009054906101000a900473ffffffffffffffffffffffffffffffffffffffff1673ffffffffffffffffffffffffffffffffffffffff166108fc600a549081150290604051600060405180830381858888f19350505050158015611113573d6000803e3d6000fd5b5082817f4a29ff6f650682addfdf8030b3eeb4610ec651b42d8603f2527633347f9489c9333086600060405161114c9493929190613caa565b60405180910390a3505050565b61117483838360405180602001604052806000815250611858565b505050565b60606000611187600861220d565b905060008060005b83811015611230573373ffffffffffffffffffffffffffffffffffffffff16600c60006001846111bf9190613a4c565b815260200190815260200160002060020160009054906101000a900473ffffffffffffffffffffffffffffffffffffffff1673ffffffffffffffffffffffffffffffffffffffff16141561121d5760018361121a9190613a4c565b92505b808061122890613ad1565b91505061118f565b5060008267ffffffffffffffff81111561124d5761124c6134fa565b5b60405190808252806020026020018201604052801561128657816020015b611273612dbd565b81526020019060019003908161126b5790505b50905060005b84811015611466573373ffffffffffffffffffffffffffffffffffffffff16600c60006001846112bc9190613a4c565b815260200190815260200160002060020160009054906101000a900473ffffffffffffffffffffffffffffffffffffffff1673ffffffffffffffffffffffffffffffffffffffff1614156114535760006001826113199190613a4c565b90506000600c60008381526020019081526020016000209050806040518060c001604052908160008201548152602001600182015481526020016002820160009054906101000a900473ffffffffffffffffffffffffffffffffffffffff1673ffffffffffffffffffffffffffffffffffffffff1673ffffffffffffffffffffffffffffffffffffffff1681526020016003820160009054906101000a900473ffffffffffffffffffffffffffffffffffffffff1673ffffffffffffffffffffffffffffffffffffffff1673ffffffffffffffffffffffffffffffffffffffff168152602001600482015481526020016005820160009054906101000a900460ff16151515158152505084868151811061143657611435613aa2565b5b602002602001018190525060018561144e9190613a4c565b945050505b808061145e90613ad1565b91505061128c565b508094505050505090565b6000806002600084815260200190815260200160002060009054906101000a900473ffffffffffffffffffffffffffffffffffffffff169050600073ffffffffffffffffffffffffffffffffffffffff168173ffffffffffffffffffffffffffffffffffffffff16141561151a576040517f08c379a000000000000000000000000000000000000000000000000000000000815260040161151190613d61565b60405180910390fd5b80915050919050565b8173ffffffffffffffffffffffffffffffffffffffff16600b60009054906101000a900473ffffffffffffffffffffffffffffffffffffffff1673ffffffffffffffffffffffffffffffffffffffff16146115b3576040517f08c379a00000000000000000000000000000000000000000000000000000000081526004016115aa90613df3565b60405180910390fd5b80600a819055505050565b60008073ffffffffffffffffffffffffffffffffffffffff168273ffffffffffffffffffffffffffffffffffffffff16141561162f576040517f08c379a000000000000000000000000000000000000000000000000000000000815260040161162690613e85565b60405180910390fd5b600360008373ffffffffffffffffffffffffffffffffffffffff1673ffffffffffffffffffffffffffffffffffffffff168152602001908152602001600020549050919050565b6000611682600861220d565b905090565b6000611693600761220d565b905090565b6060600180546116a790613801565b80601f01602080910402602001604051908101604052809291908181526020018280546116d390613801565b80156117205780601f106116f557610100808354040283529160200191611720565b820191906000526020600020905b81548152906001019060200180831161170357829003601f168201915b5050505050905090565b61173c61173561214c565b8383612576565b5050565b611748612dbd565b6000600c60008481526020019081526020016000206040518060c001604052908160008201548152602001600182015481526020016002820160009054906101000a900473ffffffffffffffffffffffffffffffffffffffff1673ffffffffffffffffffffffffffffffffffffffff1673ffffffffffffffffffffffffffffffffffffffff1681526020016003820160009054906101000a900473ffffffffffffffffffffffffffffffffffffffff1673ffffffffffffffffffffffffffffffffffffffff1673ffffffffffffffffffffffffffffffffffffffff168152602001600482015481526020016005820160009054906101000a900460ff161515151581525050905080915050919050565b61186961186361214c565b8361221b565b6118a8576040517f08c379a000000000000000000000000000000000000000000000000000000000815260040161189f90613b8c565b60405180910390fd5b6118b4848484846126e3565b50505050565b6000600c60008381526020019081526020016000206004015490506000600c60008481526020019081526020016000206001015490506000600c600085815260200190815260200160002060020160009054906101000a900473ffffffffffffffffffffffffffffffffffffffff169050600a54836119399190613a4c565b341461197a576040517f08c379a000000000000000000000000000000000000000000000000000000000815260040161197190613f17565b60405180910390fd5b33600c600086815260200190815260200160002060030160006101000a81548173ffffffffffffffffffffffffffffffffffffffff021916908373ffffffffffffffffffffffffffffffffffffffff1602179055506001600c600086815260200190815260200160002060050160006101000a81548160ff0219169083151502179055506000600c600086815260200190815260200160002060020160006101000a81548173ffffffffffffffffffffffffffffffffffffffff021916908373ffffffffffffffffffffffffffffffffffffffff160217905550611a5e6009612560565b611a693033846122f9565b600b60009054906101000a900473ffffffffffffffffffffffffffffffffffffffff1673ffffffffffffffffffffffffffffffffffffffff166108fc600a549081150290604051600060405180830381858888f19350505050158015611ad3573d6000803e3d6000fd5b508073ffffffffffffffffffffffffffffffffffffffff166108fc600a5434611afc9190613a18565b9081150290604051600060405180830381858888f19350505050158015611b27573d6000803e3d6000fd5b5050505050565b6060611b39826120e0565b611b78576040517f08c379a0000000000000000000000000000000000000000000000000000000008152600401611b6f90613fa9565b60405180910390fd5b6000600660008481526020019081526020016000208054611b9890613801565b80601f0160208091040260200160405190810160405280929190818152602001828054611bc490613801565b8015611c115780601f10611be657610100808354040283529160200191611c11565b820191906000526020600020905b815481529060010190602001808311611bf457829003601f168201915b505050505090506000611c2261273f565b9050600081511415611c38578192505050611c7b565b600082511115611c6d578082604051602001611c55929190614005565b60405160208183030381529060405292505050611c7b565b611c7684612756565b925050505b919050565b3373ffffffffffffffffffffffffffffffffffffffff16600c600084815260200190815260200160002060030160009054906101000a900473ffffffffffffffffffffffffffffffffffffffff1673ffffffffffffffffffffffffffffffffffffffff1614611d24576040517f08c379a0000000000000000000000000000000000000000000000000000000008152600401611d1b9061409b565b60405180910390fd5b600a543414611d68576040517f08c379a0000000000000000000000000000000000000000000000000000000008152600401611d5f90613c8a565b60405180910390fd5b6000600c60008481526020019081526020016000206001015490506000600c600085815260200190815260200160002060050160006101000a81548160ff02191690831515021790555081600c60008581526020019081526020016000206004018190555033600c600085815260200190815260200160002060020160006101000a81548173ffffffffffffffffffffffffffffffffffffffff021916908373ffffffffffffffffffffffffffffffffffffffff16021790555030600c600085815260200190815260200160002060030160006101000a81548173ffffffffffffffffffffffffffffffffffffffff021916908373ffffffffffffffffffffffffffffffffffffffff160217905550611e8160096127fd565b611e8c3330836122f9565b600b60009054906101000a900473ffffffffffffffffffffffffffffffffffffffff1673ffffffffffffffffffffffffffffffffffffffff166108fc600a549081150290604051600060405180830381858888f19350505050158015611ef6573d6000803e3d6000fd5b50505050565b6000600560008473ffffffffffffffffffffffffffffffffffffffff1673ffffffffffffffffffffffffffffffffffffffff16815260200190815260200160002060008373ffffffffffffffffffffffffffffffffffffffff1673ffffffffffffffffffffffffffffffffffffffff16815260200190815260200160002060009054906101000a900460ff16905092915050565b6000600a543414611fd6576040517f08c379a0000000000000000000000000000000000000000000000000000000008152600401611fcd90613c8a565b60405180910390fd5b611fe06007612560565b6000611fec600761220d565b9050611ff83382612859565b6120028184612a33565b600b60009054906101000a900473ffffffffffffffffffffffffffffffffffffffff1673ffffffffffffffffffffffffffffffffffffffff166108fc600a549081150290604051600060405180830381858888f1935050505015801561206c573d6000803e3d6000fd5b5080915050919050565b60007f01ffc9a7000000000000000000000000000000000000000000000000000000007bffffffffffffffffffffffffffffffffffffffffffffffffffffffff1916827bffffffffffffffffffffffffffffffffffffffffffffffffffffffff1916149050919050565b60008073ffffffffffffffffffffffffffffffffffffffff166002600084815260200190815260200160002060009054906101000a900473ffffffffffffffffffffffffffffffffffffffff1673ffffffffffffffffffffffffffffffffffffffff1614159050919050565b600033905090565b816004600083815260200190815260200160002060006101000a81548173ffffffffffffffffffffffffffffffffffffffff021916908373ffffffffffffffffffffffffffffffffffffffff160217905550808273ffffffffffffffffffffffffffffffffffffffff166121c783611471565b73ffffffffffffffffffffffffffffffffffffffff167f8c5be1e5ebec7d5bd14f71427d1e84f3dd0314c0f7b2291e5b200ac8c7c3b92560405160405180910390a45050565b600081600001549050919050565b6000612226826120e0565b612265576040517f08c379a000000000000000000000000000000000000000000000000000000000815260040161225c9061412d565b60405180910390fd5b600061227083611471565b90508073ffffffffffffffffffffffffffffffffffffffff168473ffffffffffffffffffffffffffffffffffffffff1614806122df57508373ffffffffffffffffffffffffffffffffffffffff166122c78461074f565b73ffffffffffffffffffffffffffffffffffffffff16145b806122f057506122ef8185611efc565b5b91505092915050565b8273ffffffffffffffffffffffffffffffffffffffff1661231982611471565b73ffffffffffffffffffffffffffffffffffffffff161461236f576040517f08c379a0000000000000000000000000000000000000000000000000000000008152600401612366906141bf565b60405180910390fd5b600073ffffffffffffffffffffffffffffffffffffffff168273ffffffffffffffffffffffffffffffffffffffff1614156123df576040517f08c379a00000000000000000000000000000000000000000000000000000000081526004016123d690614251565b60405180910390fd5b6123ea838383612aa7565b6123f5600082612154565b6001600360008573ffffffffffffffffffffffffffffffffffffffff1673ffffffffffffffffffffffffffffffffffffffff16815260200190815260200160002060008282546124459190613a18565b925050819055506001600360008473ffffffffffffffffffffffffffffffffffffffff1673ffffffffffffffffffffffffffffffffffffffff168152602001908152602001600020600082825461249c9190613a4c565b92505081905550816002600083815260200190815260200160002060006101000a81548173ffffffffffffffffffffffffffffffffffffffff021916908373ffffffffffffffffffffffffffffffffffffffff160217905550808273ffffffffffffffffffffffffffffffffffffffff168473ffffffffffffffffffffffffffffffffffffffff167fddf252ad1be2c89b69c2b068fc378daa952ba7f163c4a11628f55a4df523b3ef60405160405180910390a461255b838383612aac565b505050565b6001816000016000828254019250508190555050565b8173ffffffffffffffffffffffffffffffffffffffff168373ffffffffffffffffffffffffffffffffffffffff1614156125e5576040517f08c379a00000000000000000000000000000000000000000000000000000000081526004016125dc906142bd565b60405180910390fd5b80600560008573ffffffffffffffffffffffffffffffffffffffff1673ffffffffffffffffffffffffffffffffffffffff16815260200190815260200160002060008473ffffffffffffffffffffffffffffffffffffffff1673ffffffffffffffffffffffffffffffffffffffff16815260200190815260200160002060006101000a81548160ff0219169083151502179055508173ffffffffffffffffffffffffffffffffffffffff168373ffffffffffffffffffffffffffffffffffffffff167f17307eab39ab6107e8899845ad3d59bd9653f200f220920489ca2b5937696c31836040516126d69190612f78565b60405180910390a3505050565b6126ee8484846122f9565b6126fa84848484612ab1565b612739576040517f08c379a00000000000000000000000000000000000000000000000000000000081526004016127309061434f565b60405180910390fd5b50505050565b606060405180602001604052806000815250905090565b6060612761826120e0565b6127a0576040517f08c379a0000000000000000000000000000000000000000000000000000000008152600401612797906143e1565b60405180910390fd5b60006127aa61273f565b905060008151116127ca57604051806020016040528060008152506127f5565b806127d484612c39565b6040516020016127e5929190614005565b6040516020818303038152906040525b915050919050565b60008160000154905060008111612849576040517f08c379a00000000000000000000000000000000000000000000000000000000081526004016128409061444d565b60405180910390fd5b6001810382600001819055505050565b600073ffffffffffffffffffffffffffffffffffffffff168273ffffffffffffffffffffffffffffffffffffffff1614156128c9576040517f08c379a00000000000000000000000000000000000000000000000000000000081526004016128c0906144b9565b60405180910390fd5b6128d2816120e0565b15612912576040517f08c379a000000000000000000000000000000000000000000000000000000000815260040161290990614525565b60405180910390fd5b61291e60008383612aa7565b6001600360008473ffffffffffffffffffffffffffffffffffffffff1673ffffffffffffffffffffffffffffffffffffffff168152602001908152602001600020600082825461296e9190613a4c565b92505081905550816002600083815260200190815260200160002060006101000a81548173ffffffffffffffffffffffffffffffffffffffff021916908373ffffffffffffffffffffffffffffffffffffffff160217905550808273ffffffffffffffffffffffffffffffffffffffff16600073ffffffffffffffffffffffffffffffffffffffff167fddf252ad1be2c89b69c2b068fc378daa952ba7f163c4a11628f55a4df523b3ef60405160405180910390a4612a2f60008383612aac565b5050565b612a3c826120e0565b612a7b576040517f08c379a0000000000000000000000000000000000000000000000000000000008152600401612a72906145b7565b60405180910390fd5b80600660008481526020019081526020016000209080519060200190612aa2929190612e21565b505050565b505050565b505050565b6000612ad28473ffffffffffffffffffffffffffffffffffffffff16612d9a565b15612c2c578373ffffffffffffffffffffffffffffffffffffffff1663150b7a02612afb61214c565b8786866040518563ffffffff1660e01b8152600401612b1d949392919061462c565b6020604051808303816000875af1925050508015612b5957506040513d601f19601f82011682018060405250810190612b56919061468d565b60015b612bdc573d8060008114612b89576040519150601f19603f3d011682016040523d82523d6000602084013e612b8e565b606091505b50600081511415612bd4576040517f08c379a0000000000000000000000000000000000000000000000000000000008152600401612bcb9061434f565b60405180910390fd5b805181602001fd5b63150b7a0260e01b7bffffffffffffffffffffffffffffffffffffffffffffffffffffffff1916817bffffffffffffffffffffffffffffffffffffffffffffffffffffffff191614915050612c31565b600190505b949350505050565b60606000821415612c81576040518060400160405280600181526020017f30000000000000000000000000000000000000000000000000000000000000008152509050612d95565b600082905060005b60008214612cb3578080612c9c90613ad1565b915050600a82612cac91906146e9565b9150612c89565b60008167ffffffffffffffff811115612ccf57612cce6134fa565b5b6040519080825280601f01601f191660200182016040528015612d015781602001600182028036833780820191505090505b5090505b60008514612d8e57600182612d1a9190613a18565b9150600a85612d29919061471a565b6030612d359190613a4c565b60f81b818381518110612d4b57612d4a613aa2565b5b60200101907effffffffffffffffffffffffffffffffffffffffffffffffffffffffffffff1916908160001a905350600a85612d8791906146e9565b9450612d05565b8093505050505b919050565b6000808273ffffffffffffffffffffffffffffffffffffffff163b119050919050565b6040518060c001604052806000815260200160008152602001600073ffffffffffffffffffffffffffffffffffffffff168152602001600073ffffffffffffffffffffffffffffffffffffffff168152602001600081526020016000151581525090565b828054612e2d90613801565b90600052602060002090601f016020900481019282612e4f5760008555612e96565b82601f10612e6857805160ff1916838001178555612e96565b82800160010185558215612e96579182015b82811115612e95578251825591602001919060010190612e7a565b5b509050612ea39190612ea7565b5090565b5b80821115612ec0576000816000905550600101612ea8565b5090565b6000604051905090565b600080fd5b600080fd5b60007fffffffff0000000000000000000000000000000000000000000000000000000082169050919050565b612f0d81612ed8565b8114612f1857600080fd5b50565b600081359050612f2a81612f04565b92915050565b600060208284031215612f4657612f45612ece565b5b6000612f5484828501612f1b565b91505092915050565b60008115159050919050565b612f7281612f5d565b82525050565b6000602082019050612f8d6000830184612f69565b92915050565b600081519050919050565b600082825260208201905092915050565b60005b83811015612fcd578082015181840152602081019050612fb2565b83811115612fdc576000848401525b50505050565b6000601f19601f8301169050919050565b6000612ffe82612f93565b6130088185612f9e565b9350613018818560208601612faf565b61302181612fe2565b840191505092915050565b600060208201905081810360008301526130468184612ff3565b905092915050565b6000819050919050565b6130618161304e565b811461306c57600080fd5b50565b60008135905061307e81613058565b92915050565b60006020828403121561309a57613099612ece565b5b60006130a88482850161306f565b91505092915050565b600073ffffffffffffffffffffffffffffffffffffffff82169050919050565b60006130dc826130b1565b9050919050565b6130ec816130d1565b82525050565b600060208201905061310760008301846130e3565b92915050565b613116816130d1565b811461312157600080fd5b50565b6000813590506131338161310d565b92915050565b600080604083850312156131505761314f612ece565b5b600061315e85828601613124565b925050602061316f8582860161306f565b9150509250929050565b600081519050919050565b600082825260208201905092915050565b6000819050602082019050919050565b6131ae8161304e565b82525050565b60006131bf826130b1565b9050919050565b6131cf816131b4565b82525050565b6131de81612f5d565b82525050565b60c0820160008201516131fa60008501826131a5565b50602082015161320d60208501826131a5565b50604082015161322060408501826131c6565b50606082015161323360608501826131c6565b50608082015161324660808501826131a5565b5060a082015161325960a08501826131d5565b50505050565b600061326b83836131e4565b60c08301905092915050565b6000602082019050919050565b600061328f82613179565b6132998185613184565b93506132a483613195565b8060005b838110156132d55781516132bc888261325f565b97506132c783613277565b9250506001810190506132a8565b5085935050505092915050565b600060208201905081810360008301526132fc8184613284565b905092915050565b61330d8161304e565b82525050565b60006020820190506133286000830184613304565b92915050565b60008060006060848603121561334757613346612ece565b5b600061335586828701613124565b935050602061336686828701613124565b92505060406133778682870161306f565b9150509250925092565b6000806040838503121561339857613397612ece565b5b60006133a68582860161306f565b92505060206133b78582860161306f565b9150509250929050565b6000602082840312156133d7576133d6612ece565b5b60006133e584828501613124565b91505092915050565b6133f781612f5d565b811461340257600080fd5b50565b600081359050613414816133ee565b92915050565b6000806040838503121561343157613430612ece565b5b600061343f85828601613124565b925050602061345085828601613405565b9150509250929050565b60c08201600082015161347060008501826131a5565b50602082015161348360208501826131a5565b50604082015161349660408501826131c6565b5060608201516134a960608501826131c6565b5060808201516134bc60808501826131a5565b5060a08201516134cf60a08501826131d5565b50505050565b600060c0820190506134ea600083018461345a565b92915050565b600080fd5b600080fd5b7f4e487b7100000000000000000000000000000000000000000000000000000000600052604160045260246000fd5b61353282612fe2565b810181811067ffffffffffffffff82111715613551576135506134fa565b5b80604052505050565b6000613564612ec4565b90506135708282613529565b919050565b600067ffffffffffffffff8211156135905761358f6134fa565b5b61359982612fe2565b9050602081019050919050565b82818337600083830152505050565b60006135c86135c384613575565b61355a565b9050828152602081018484840111156135e4576135e36134f5565b5b6135ef8482856135a6565b509392505050565b600082601f83011261360c5761360b6134f0565b5b813561361c8482602086016135b5565b91505092915050565b6000806000806080858703121561363f5761363e612ece565b5b600061364d87828801613124565b945050602061365e87828801613124565b935050604061366f8782880161306f565b925050606085013567ffffffffffffffff8111156136905761368f612ed3565b5b61369c878288016135f7565b91505092959194509250565b600080604083850312156136bf576136be612ece565b5b60006136cd85828601613124565b92505060206136de85828601613124565b9150509250929050565b600067ffffffffffffffff821115613703576137026134fa565b5b61370c82612fe2565b9050602081019050919050565b600061372c613727846136e8565b61355a565b905082815260208101848484011115613748576137476134f5565b5b6137538482856135a6565b509392505050565b600082601f8301126137705761376f6134f0565b5b8135613780848260208601613719565b91505092915050565b60006020828403121561379f5761379e612ece565b5b600082013567ffffffffffffffff8111156137bd576137bc612ed3565b5b6137c98482850161375b565b91505092915050565b7f4e487b7100000000000000000000000000000000000000000000000000000000600052602260045260246000fd5b6000600282049050600182168061381957607f821691505b6020821081141561382d5761382c6137d2565b5b50919050565b7f4552433732313a20617070726f76656420717565727920666f72206e6f6e657860008201527f697374656e7420746f6b656e0000000000000000000000000000000000000000602082015250565b600061388f602c83612f9e565b915061389a82613833565b604082019050919050565b600060208201905081810360008301526138be81613882565b9050919050565b7f4552433732313a20617070726f76616c20746f2063757272656e74206f776e6560008201527f7200000000000000000000000000000000000000000000000000000000000000602082015250565b6000613921602183612f9e565b915061392c826138c5565b604082019050919050565b6000602082019050818103600083015261395081613914565b9050919050565b7f4552433732313a20617070726f76652063616c6c6572206973206e6f74206f7760008201527f6e6572206e6f7220617070726f76656420666f7220616c6c0000000000000000602082015250565b60006139b3603883612f9e565b91506139be82613957565b604082019050919050565b600060208201905081810360008301526139e2816139a6565b9050919050565b7f4e487b7100000000000000000000000000000000000000000000000000000000600052601160045260246000fd5b6000613a238261304e565b9150613a2e8361304e565b925082821015613a4157613a406139e9565b5b828203905092915050565b6000613a578261304e565b9150613a628361304e565b9250827fffffffffffffffffffffffffffffffffffffffffffffffffffffffffffffffff03821115613a9757613a966139e9565b5b828201905092915050565b7f4e487b7100000000000000000000000000000000000000000000000000000000600052603260045260246000fd5b6000613adc8261304e565b91507fffffffffffffffffffffffffffffffffffffffffffffffffffffffffffffffff821415613b0f57613b0e6139e9565b5b600182019050919050565b7f4552433732313a207472616e736665722063616c6c6572206973206e6f74206f60008201527f776e6572206e6f7220617070726f766564000000000000000000000000000000602082015250565b6000613b76603183612f9e565b9150613b8182613b1a565b604082019050919050565b60006020820190508181036000830152613ba581613b69565b9050919050565b7f5072696365206d757374206265206174206c6561737420312077656900000000600082015250565b6000613be2601c83612f9e565b9150613bed82613bac565b602082019050919050565b60006020820190508181036000830152613c1181613bd5565b9050919050565b7f5072696365206d75737420626520657175616c20746f206c697374696e67207060008201527f7269636500000000000000000000000000000000000000000000000000000000602082015250565b6000613c74602483612f9e565b9150613c7f82613c18565b604082019050919050565b60006020820190508181036000830152613ca381613c67565b9050919050565b6000608082019050613cbf60008301876130e3565b613ccc60208301866130e3565b613cd96040830185613304565b613ce66060830184612f69565b95945050505050565b7f4552433732313a206f776e657220717565727920666f72206e6f6e657869737460008201527f656e7420746f6b656e0000000000000000000000000000000000000000000000602082015250565b6000613d4b602983612f9e565b9150613d5682613cef565b604082019050919050565b60006020820190508181036000830152613d7a81613d3e565b9050919050565b7f4f6e6c79206d61726b6574706c616365206f776e65722063616e20757064617460008201527f65206c697374696e672070726963652e00000000000000000000000000000000602082015250565b6000613ddd603083612f9e565b9150613de882613d81565b604082019050919050565b60006020820190508181036000830152613e0c81613dd0565b9050919050565b7f4552433732313a2062616c616e636520717565727920666f7220746865207a6560008201527f726f206164647265737300000000000000000000000000000000000000000000602082015250565b6000613e6f602a83612f9e565b9150613e7a82613e13565b604082019050919050565b60006020820190508181036000830152613e9e81613e62565b9050919050565b7f506c65617365207375626d6974207468652061736b696e67207072696365206960008201527f6e206f7264657220746f20636f6d706c65746520746865207075726368617365602082015250565b6000613f01604083612f9e565b9150613f0c82613ea5565b604082019050919050565b60006020820190508181036000830152613f3081613ef4565b9050919050565b7f45524337323155524953746f726167653a2055524920717565727920666f722060008201527f6e6f6e6578697374656e7420746f6b656e000000000000000000000000000000602082015250565b6000613f93603183612f9e565b9150613f9e82613f37565b604082019050919050565b60006020820190508181036000830152613fc281613f86565b9050919050565b600081905092915050565b6000613fdf82612f93565b613fe98185613fc9565b9350613ff9818560208601612faf565b80840191505092915050565b60006140118285613fd4565b915061401d8284613fd4565b91508190509392505050565b7f4f6e6c79206974656d206f776e65722063616e20706572666f726d207468697360008201527f206f7065726174696f6e00000000000000000000000000000000000000000000602082015250565b6000614085602a83612f9e565b915061409082614029565b604082019050919050565b600060208201905081810360008301526140b481614078565b9050919050565b7f4552433732313a206f70657261746f7220717565727920666f72206e6f6e657860008201527f697374656e7420746f6b656e0000000000000000000000000000000000000000602082015250565b6000614117602c83612f9e565b9150614122826140bb565b604082019050919050565b600060208201905081810360008301526141468161410a565b9050919050565b7f4552433732313a207472616e736665722066726f6d20696e636f72726563742060008201527f6f776e6572000000000000000000000000000000000000000000000000000000602082015250565b60006141a9602583612f9e565b91506141b48261414d565b604082019050919050565b600060208201905081810360008301526141d88161419c565b9050919050565b7f4552433732313a207472616e7366657220746f20746865207a65726f2061646460008201527f7265737300000000000000000000000000000000000000000000000000000000602082015250565b600061423b602483612f9e565b9150614246826141df565b604082019050919050565b6000602082019050818103600083015261426a8161422e565b9050919050565b7f4552433732313a20617070726f766520746f2063616c6c657200000000000000600082015250565b60006142a7601983612f9e565b91506142b282614271565b602082019050919050565b600060208201905081810360008301526142d68161429a565b9050919050565b7f4552433732313a207472616e7366657220746f206e6f6e20455243373231526560008201527f63656976657220696d706c656d656e7465720000000000000000000000000000602082015250565b6000614339603283612f9e565b9150614344826142dd565b604082019050919050565b600060208201905081810360008301526143688161432c565b9050919050565b7f4552433732314d657461646174613a2055524920717565727920666f72206e6f60008201527f6e6578697374656e7420746f6b656e0000000000000000000000000000000000602082015250565b60006143cb602f83612f9e565b91506143d68261436f565b604082019050919050565b600060208201905081810360008301526143fa816143be565b9050919050565b7f436f756e7465723a2064656372656d656e74206f766572666c6f770000000000600082015250565b6000614437601b83612f9e565b915061444282614401565b602082019050919050565b600060208201905081810360008301526144668161442a565b9050919050565b7f4552433732313a206d696e7420746f20746865207a65726f2061646472657373600082015250565b60006144a3602083612f9e565b91506144ae8261446d565b602082019050919050565b600060208201905081810360008301526144d281614496565b9050919050565b7f4552433732313a20746f6b656e20616c7265616479206d696e74656400000000600082015250565b600061450f601c83612f9e565b915061451a826144d9565b602082019050919050565b6000602082019050818103600083015261453e81614502565b9050919050565b7f45524337323155524953746f726167653a2055524920736574206f66206e6f6e60008201527f6578697374656e7420746f6b656e000000000000000000000000000000000000602082015250565b60006145a1602e83612f9e565b91506145ac82614545565b604082019050919050565b600060208201905081810360008301526145d081614594565b9050919050565b600081519050919050565b600082825260208201905092915050565b60006145fe826145d7565b61460881856145e2565b9350614618818560208601612faf565b61462181612fe2565b840191505092915050565b600060808201905061464160008301876130e3565b61464e60208301866130e3565b61465b6040830185613304565b818103606083015261466d81846145f3565b905095945050505050565b60008151905061468781612f04565b92915050565b6000602082840312156146a3576146a2612ece565b5b60006146b184828501614678565b91505092915050565b7f4e487b7100000000000000000000000000000000000000000000000000000000600052601260045260246000fd5b60006146f48261304e565b91506146ff8361304e565b92508261470f5761470e6146ba565b5b828204905092915050565b60006147258261304e565b91506147308361304e565b9250826147405761473f6146ba565b5b82820690509291505056fea26469706673582212206ac6e82d66891c5b81d5d5e2ac10852ca9ba68cef63bf061e544496ceec604d964736f6c634300080b0033",
  "immutableReferences": {},
  "source": "// SPDX-License-Identifier: MIT\r\npragma solidity >=0.4.22 <0.9.0;\r\n\r\n\r\nimport \"@openzeppelin/contracts/token/ERC721/ERC721.sol\";\r\nimport \"@openzeppelin/contracts/token/ERC721/IERC721.sol\";\r\nimport \"@openzeppelin/contracts/utils/Counters.sol\";\r\nimport \"@openzeppelin/contracts/access/Ownable.sol\";\r\nimport \"@openzeppelin/contracts/token/ERC721/extensions/ERC721URIStorage.sol\";\r\nimport \"@openzeppelin/contracts/security/ReentrancyGuard.sol\";\r\n\r\ncontract NFTMarketplace is ERC721URIStorage {\r\n    using Counters for Counters.Counter;\r\n    Counters.Counter private _tokenIds;\r\n    Counters.Counter private _ItemIds;\r\n    Counters.Counter private _itemsSold;\r\n\r\n    uint256 listingPrice = 0.025 ether;\r\n    address payable owner;\r\n\r\n    mapping(uint256 => MarketItem) private idToMarketItem;\r\n\r\n    struct MarketItem {\r\n      uint256 ItemId;\r\n      uint256 tokenId;\r\n      address payable seller;\r\n      address payable owner;\r\n      uint256 price;\r\n      bool sold;\r\n    }\r\n\r\n    event MarketItemCreated (\r\n      uint256 indexed ItemId,\r\n      uint256 indexed tokenId,\r\n      address seller,\r\n      address owner,\r\n      uint256 price,\r\n      bool sold\r\n    );\r\n\r\n    constructor() ERC721(\"NFTMarketplace\", \"NMP\") {\r\n      owner = payable(msg.sender);\r\n    }\r\n\r\n    /* Updates the listing price of the contract */\r\n    function updateListingPrice(address creator,uint _listingPrice) public payable {\r\n      require(owner == creator, \"Only marketplace owner can update listing price.\");\r\n      listingPrice = _listingPrice;\r\n    }\r\n\r\n    /* Returns the listing price of the contract */\r\n    function getListingPrice() public view returns (uint256) {\r\n      return listingPrice;\r\n    }\r\n\r\n    function getTokenCount() public view returns (uint256){\r\n      return _tokenIds.current();\r\n    }\r\n\r\n    function getItemCount() public view returns (uint256){\r\n      return _ItemIds.current();\r\n    }\r\n\r\n\r\n    /* Mints a token and lists it in the marketplace */\r\n    function mintNFT(string memory tokenURI) public payable returns (uint) {\r\n      // user has to pay listing price to contract owner\r\n      require(msg.value == listingPrice, \"Price must be equal to listing price\");\r\n      _tokenIds.increment();\r\n      uint256 newTokenId = _tokenIds.current();\r\n      _mint(msg.sender, newTokenId);\r\n      _setTokenURI(newTokenId, tokenURI);\r\n      // listing price transfer to owner\r\n      payable(owner).transfer(listingPrice);\r\n      return newTokenId;\r\n    }\r\n\r\n    function createMarketItem(\r\n      uint256 tokenId,\r\n      uint256 price\r\n    ) public payable {\r\n      require(price > 0, \"Price must be at least 1 wei\");\r\n      // user has to pay listing price to contract owner\r\n      require(msg.value == listingPrice, \"Price must be equal to listing price\");\r\n\r\n      _ItemIds.increment();\r\n      uint256 ItemId = _ItemIds.current();\r\n\r\n      idToMarketItem[ItemId] =  MarketItem(\r\n        ItemId,\r\n        tokenId,\r\n        payable(msg.sender),\r\n        payable(address(this)),\r\n        price,\r\n        false\r\n      );\r\n\r\n      _transfer(msg.sender, address(this), tokenId);\r\n      // listing price transfer to owner\r\n      payable(owner).transfer(listingPrice);\r\n\r\n      emit MarketItemCreated(\r\n        ItemId,\r\n        tokenId,\r\n        msg.sender,\r\n        address(this),\r\n        price,\r\n        false\r\n      );\r\n    }\r\n\r\n\r\n    /* allows someone to resell a item they have purchased */\r\n    function resellToken(uint256 itemId, uint256 price) public payable {\r\n      require(idToMarketItem[itemId].owner == msg.sender, \"Only item owner can perform this operation\");\r\n      // user has to pay listing price to contract owner\r\n      require(msg.value == listingPrice, \"Price must be equal to listing price\");\r\n      uint tokenId = idToMarketItem[itemId].tokenId;\r\n      idToMarketItem[itemId].sold = false;\r\n      idToMarketItem[itemId].price = price;\r\n      idToMarketItem[itemId].seller = payable(msg.sender);\r\n      idToMarketItem[itemId].owner = payable(address(this));\r\n      _itemsSold.decrement();\r\n\r\n      _transfer(msg.sender, address(this), tokenId);\r\n      // listing price transfer to owner\r\n      payable(owner).transfer(listingPrice);\r\n    }\r\n\r\n    /* Creates the sale of a marketplace item */\r\n    /* Transfers ownership of the item, as well as funds between parties */\r\n    function createMarketSale(\r\n      uint256 itemId\r\n      ) public payable {\r\n      uint price = idToMarketItem[itemId].price;\r\n      uint tokenId = idToMarketItem[itemId].tokenId;\r\n      \r\n      address seller = idToMarketItem[itemId].seller;\r\n      // check sending price is equal to item price \r\n      require(msg.value == price + listingPrice, \"Please submit the asking price in order to complete the purchase\");\r\n      idToMarketItem[itemId].owner = payable(msg.sender);\r\n      idToMarketItem[itemId].sold = true;\r\n      idToMarketItem[itemId].seller = payable(address(0));\r\n\r\n      _itemsSold.increment();\r\n      // transfer owner of this contract to buyer\r\n      _transfer(address(this), msg.sender, tokenId);\r\n      // tranfering the amount that person had listed item for to the contract owner\r\n      payable(owner).transfer(listingPrice);\r\n      payable(seller).transfer(msg.value-listingPrice);\r\n    }\r\n\r\n    /* Returns all unsold market items */\r\n    function fetchMarketItems() public view returns (MarketItem[] memory) {\r\n      uint itemCount = _ItemIds.current();\r\n      uint unsoldItemCount = _ItemIds.current() - _itemsSold.current();\r\n      uint currentIndex = 0;\r\n\r\n      MarketItem[] memory items = new MarketItem[](unsoldItemCount);\r\n      for (uint i = 0; i < itemCount; i++) {\r\n        if (idToMarketItem[i + 1].owner == address(this)) {\r\n          uint currentId = i + 1;\r\n          MarketItem storage currentItem = idToMarketItem[currentId];\r\n          items[currentIndex] = currentItem;\r\n          currentIndex += 1;\r\n        }\r\n      }\r\n      return items;\r\n    }\r\n\r\n    /* Returns item using item id*/\r\n    function fetchItem(uint itemId) public view returns (MarketItem memory){\r\n      MarketItem memory item = idToMarketItem[itemId];\r\n      return item;\r\n    }\r\n\r\n    /* Returns only items that a user has purchased */\r\n    function fetchMyNFTs() public view returns (MarketItem[] memory) {\r\n      uint totalItemCount = _ItemIds.current();\r\n      uint itemCount = 0;\r\n      uint currentIndex = 0;\r\n\r\n      for (uint i = 0; i < totalItemCount; i++) {\r\n        if (idToMarketItem[i + 1].owner == msg.sender) {\r\n          itemCount += 1;\r\n        }\r\n      }\r\n\r\n      MarketItem[] memory items = new MarketItem[](itemCount);\r\n      for (uint i = 0; i < totalItemCount; i++) {\r\n        if (idToMarketItem[i + 1].owner == msg.sender) {\r\n          uint currentId = i + 1;\r\n          MarketItem storage currentItem = idToMarketItem[currentId];\r\n          items[currentIndex] = currentItem;\r\n          currentIndex += 1;\r\n        }\r\n      }\r\n      return items;\r\n    }\r\n\r\n    /* Returns only items a user has listed */\r\n    function fetchItemsListed() public view returns (MarketItem[] memory) {\r\n      uint totalItemCount = _ItemIds.current();\r\n      uint itemCount = 0;\r\n      uint currentIndex = 0;\r\n\r\n      for (uint i = 0; i < totalItemCount; i++) {\r\n        if (idToMarketItem[i + 1].seller == msg.sender) {\r\n          itemCount += 1;\r\n        }\r\n      }\r\n\r\n      MarketItem[] memory items = new MarketItem[](itemCount);\r\n      for (uint i = 0; i < totalItemCount; i++) {\r\n        if (idToMarketItem[i + 1].seller == msg.sender) {\r\n          uint currentId = i + 1;\r\n          MarketItem storage currentItem = idToMarketItem[currentId];\r\n          items[currentIndex] = currentItem;\r\n          currentIndex += 1;\r\n        }\r\n      }\r\n      return items;\r\n    }\r\n}",
  "sourcePath": "D:\\Block Chain\\NFTMarketPlace\\contracts\\NFTMarketplace.sol",
  "compiler": {
    "name": "solc",
    "version": "0.8.11+commit.d7f03943.Emscripten.clang"
  },
  "schemaVersion": "3.4.5",
  "updatedAt": "2022-04-03T10:16:44.404Z",
  "networkType": "ethereum",
  "devdoc": {
    "kind": "dev",
    "methods": {
      "approve(address,uint256)": {
        "details": "See {IERC721-approve}."
      },
      "balanceOf(address)": {
        "details": "See {IERC721-balanceOf}."
      },
      "getApproved(uint256)": {
        "details": "See {IERC721-getApproved}."
      },
      "isApprovedForAll(address,address)": {
        "details": "See {IERC721-isApprovedForAll}."
      },
      "name()": {
        "details": "See {IERC721Metadata-name}."
      },
      "ownerOf(uint256)": {
        "details": "See {IERC721-ownerOf}."
      },
      "safeTransferFrom(address,address,uint256)": {
        "details": "See {IERC721-safeTransferFrom}."
      },
      "safeTransferFrom(address,address,uint256,bytes)": {
        "details": "See {IERC721-safeTransferFrom}."
      },
      "setApprovalForAll(address,bool)": {
        "details": "See {IERC721-setApprovalForAll}."
      },
      "supportsInterface(bytes4)": {
        "details": "See {IERC165-supportsInterface}."
      },
      "symbol()": {
        "details": "See {IERC721Metadata-symbol}."
      },
      "tokenURI(uint256)": {
        "details": "See {IERC721Metadata-tokenURI}."
      },
      "transferFrom(address,address,uint256)": {
        "details": "See {IERC721-transferFrom}."
      }
    },
    "version": 1
  },
  "userdoc": {
    "kind": "user",
    "methods": {},
    "version": 1
  }
}