{
  "contractName": "SellNFTs",
  "abi": [
    {
      "inputs": [],
      "stateMutability": "nonpayable",
      "type": "constructor"
    },
    {
      "anonymous": false,
      "inputs": [
        {
          "indexed": true,
          "internalType": "uint256",
          "name": "ItemId",
          "type": "uint256"
        },
        {
          "indexed": true,
          "internalType": "address",
          "name": "nftContract",
          "type": "address"
        },
        {
          "indexed": true,
          "internalType": "uint256",
          "name": "tokenId",
          "type": "uint256"
        },
        {
          "indexed": false,
          "internalType": "address",
          "name": "seller",
          "type": "address"
        },
        {
          "indexed": false,
          "internalType": "address",
          "name": "owner",
          "type": "address"
        },
        {
          "indexed": false,
          "internalType": "uint256",
          "name": "price",
          "type": "uint256"
        },
        {
          "indexed": false,
          "internalType": "bool",
          "name": "sold",
          "type": "bool"
        }
      ],
      "name": "MarketItemCreated",
      "type": "event"
    },
    {
      "inputs": [],
      "name": "getListingPrice",
      "outputs": [
        {
          "internalType": "uint256",
          "name": "",
          "type": "uint256"
        }
      ],
      "stateMutability": "view",
      "type": "function"
    },
    {
      "inputs": [
        {
          "internalType": "address",
          "name": "nftContract",
          "type": "address"
        },
        {
          "internalType": "uint256",
          "name": "tokenId",
          "type": "uint256"
        },
        {
          "internalType": "uint256",
          "name": "price",
          "type": "uint256"
        }
      ],
      "name": "createMarketItem",
      "outputs": [],
      "stateMutability": "payable",
      "type": "function"
    },
    {
      "inputs": [
        {
          "internalType": "address",
          "name": "nftContract",
          "type": "address"
        },
        {
          "internalType": "uint256",
          "name": "itemId",
          "type": "uint256"
        }
      ],
      "name": "createMarketSale",
      "outputs": [],
      "stateMutability": "payable",
      "type": "function"
    },
    {
      "inputs": [],
      "name": "fetchMarketItem",
      "outputs": [
        {
          "components": [
            {
              "internalType": "uint256",
              "name": "ItemId",
              "type": "uint256"
            },
            {
              "internalType": "address",
              "name": "nftContract",
              "type": "address"
            },
            {
              "internalType": "uint256",
              "name": "tokenId",
              "type": "uint256"
            },
            {
              "internalType": "address payable",
              "name": "seller",
              "type": "address"
            },
            {
              "internalType": "address payable",
              "name": "owner",
              "type": "address"
            },
            {
              "internalType": "uint256",
              "name": "price",
              "type": "uint256"
            },
            {
              "internalType": "bool",
              "name": "sold",
              "type": "bool"
            }
          ],
          "internalType": "struct SellNFTs.MarketItem[]",
          "name": "",
          "type": "tuple[]"
        }
      ],
      "stateMutability": "view",
      "type": "function"
    },
    {
      "inputs": [],
      "name": "fetchMyNFTs",
      "outputs": [
        {
          "components": [
            {
              "internalType": "uint256",
              "name": "ItemId",
              "type": "uint256"
            },
            {
              "internalType": "address",
              "name": "nftContract",
              "type": "address"
            },
            {
              "internalType": "uint256",
              "name": "tokenId",
              "type": "uint256"
            },
            {
              "internalType": "address payable",
              "name": "seller",
              "type": "address"
            },
            {
              "internalType": "address payable",
              "name": "owner",
              "type": "address"
            },
            {
              "internalType": "uint256",
              "name": "price",
              "type": "uint256"
            },
            {
              "internalType": "bool",
              "name": "sold",
              "type": "bool"
            }
          ],
          "internalType": "struct SellNFTs.MarketItem[]",
          "name": "",
          "type": "tuple[]"
        }
      ],
      "stateMutability": "view",
      "type": "function"
    },
    {
      "inputs": [],
      "name": "fetchItemCreated",
      "outputs": [
        {
          "components": [
            {
              "internalType": "uint256",
              "name": "ItemId",
              "type": "uint256"
            },
            {
              "internalType": "address",
              "name": "nftContract",
              "type": "address"
            },
            {
              "internalType": "uint256",
              "name": "tokenId",
              "type": "uint256"
            },
            {
              "internalType": "address payable",
              "name": "seller",
              "type": "address"
            },
            {
              "internalType": "address payable",
              "name": "owner",
              "type": "address"
            },
            {
              "internalType": "uint256",
              "name": "price",
              "type": "uint256"
            },
            {
              "internalType": "bool",
              "name": "sold",
              "type": "bool"
            }
          ],
          "internalType": "struct SellNFTs.MarketItem[]",
          "name": "",
          "type": "tuple[]"
        }
      ],
      "stateMutability": "view",
      "type": "function"
    }
  ],
  "bytecode": "0x60806040526658d15e1762800060045534801561001b57600080fd5b50600160008190555033600360006101000a81548173ffffffffffffffffffffffffffffffffffffffff021916908373ffffffffffffffffffffffffffffffffffffffff1602179055506118a7806100746000396000f3fe6080604052600436106100555760003560e01c806312e855851461005a578063202e37401461008557806358eb2df5146100b05780636d360339146100cc5780638fafd021146100f7578063c23b139e14610122575b600080fd5b34801561006657600080fd5b5061006f61013e565b60405161007c9190611174565b60405180910390f35b34801561009157600080fd5b5061009a610148565b6040516100a79190611358565b60405180910390f35b6100ca60048036038101906100c591906113d7565b6104ac565b005b3480156100d857600080fd5b506100e161080e565b6040516100ee9190611358565b60405180910390f35b34801561010357600080fd5b5061010c610b72565b6040516101199190611358565b60405180910390f35b61013c6004803603810190610137919061142a565b610e52565b005b6000600454905090565b6060600061015660016110b6565b905060008060005b838110156101ff573373ffffffffffffffffffffffffffffffffffffffff166005600060018461018e9190611499565b815260200190815260200160002060040160009054906101000a900473ffffffffffffffffffffffffffffffffffffffff1673ffffffffffffffffffffffffffffffffffffffff1614156101ec576001836101e99190611499565b92505b80806101f7906114ef565b91505061015e565b5060008267ffffffffffffffff81111561021c5761021b611538565b5b60405190808252806020026020018201604052801561025557816020015b6102426110da565b81526020019060019003908161023a5790505b50905060005b848110156104a1573373ffffffffffffffffffffffffffffffffffffffff166005600060018461028b9190611499565b815260200190815260200160002060040160009054906101000a900473ffffffffffffffffffffffffffffffffffffffff1673ffffffffffffffffffffffffffffffffffffffff16141561048e576000600560006001846102ec9190611499565b81526020019081526020016000206000015490506000600560008381526020019081526020016000209050806040518060e0016040529081600082015481526020016001820160009054906101000a900473ffffffffffffffffffffffffffffffffffffffff1673ffffffffffffffffffffffffffffffffffffffff1673ffffffffffffffffffffffffffffffffffffffff168152602001600282015481526020016003820160009054906101000a900473ffffffffffffffffffffffffffffffffffffffff1673ffffffffffffffffffffffffffffffffffffffff1673ffffffffffffffffffffffffffffffffffffffff1681526020016004820160009054906101000a900473ffffffffffffffffffffffffffffffffffffffff1673ffffffffffffffffffffffffffffffffffffffff1673ffffffffffffffffffffffffffffffffffffffff168152602001600582015481526020016006820160009054906101000a900460ff16151515158152505084868151811061047157610470611567565b5b60200260200101819052506001856104899190611499565b945050505b8080610499906114ef565b91505061025b565b508094505050505090565b600260005414156104f2576040517f08c379a00000000000000000000000000000000000000000000000000000000081526004016104e9906115f3565b60405180910390fd5b60026000819055506000811161053d576040517f08c379a00000000000000000000000000000000000000000000000000000000081526004016105349061165f565b60405180910390fd5b6004543414610581576040517f08c379a0000000000000000000000000000000000000000000000000000000008152600401610578906116f1565b60405180910390fd5b61058b60016110c4565b600061059760016110b6565b90506040518060e001604052808281526020018573ffffffffffffffffffffffffffffffffffffffff1681526020018481526020013373ffffffffffffffffffffffffffffffffffffffff1681526020013073ffffffffffffffffffffffffffffffffffffffff16815260200183815260200160001515815250600560008381526020019081526020016000206000820151816000015560208201518160010160006101000a81548173ffffffffffffffffffffffffffffffffffffffff021916908373ffffffffffffffffffffffffffffffffffffffff1602179055506040820151816002015560608201518160030160006101000a81548173ffffffffffffffffffffffffffffffffffffffff021916908373ffffffffffffffffffffffffffffffffffffffff16021790555060808201518160040160006101000a81548173ffffffffffffffffffffffffffffffffffffffff021916908373ffffffffffffffffffffffffffffffffffffffff16021790555060a0820151816005015560c08201518160060160006101000a81548160ff0219169083151502179055509050508373ffffffffffffffffffffffffffffffffffffffff166323b872dd3330866040518463ffffffff1660e01b815260040161077793929190611720565b600060405180830381600087803b15801561079157600080fd5b505af11580156107a5573d6000803e3d6000fd5b50505050828473ffffffffffffffffffffffffffffffffffffffff16827f045dfa01dcba2b36aba1d3dc4a874f4b0c5d2fbeb8d2c4b34a7d88c8d8f929d133308760006040516107f89493929190611766565b60405180910390a4506001600081905550505050565b6060600061081c60016110b6565b905060008060005b838110156108c5573373ffffffffffffffffffffffffffffffffffffffff16600560006001846108549190611499565b815260200190815260200160002060030160009054906101000a900473ffffffffffffffffffffffffffffffffffffffff1673ffffffffffffffffffffffffffffffffffffffff1614156108b2576001836108af9190611499565b92505b80806108bd906114ef565b915050610824565b5060008267ffffffffffffffff8111156108e2576108e1611538565b5b60405190808252806020026020018201604052801561091b57816020015b6109086110da565b8152602001906001900390816109005790505b50905060005b84811015610b67573373ffffffffffffffffffffffffffffffffffffffff16600560006001846109519190611499565b815260200190815260200160002060030160009054906101000a900473ffffffffffffffffffffffffffffffffffffffff1673ffffffffffffffffffffffffffffffffffffffff161415610b54576000600560006001846109b29190611499565b81526020019081526020016000206000015490506000600560008381526020019081526020016000209050806040518060e0016040529081600082015481526020016001820160009054906101000a900473ffffffffffffffffffffffffffffffffffffffff1673ffffffffffffffffffffffffffffffffffffffff1673ffffffffffffffffffffffffffffffffffffffff168152602001600282015481526020016003820160009054906101000a900473ffffffffffffffffffffffffffffffffffffffff1673ffffffffffffffffffffffffffffffffffffffff1673ffffffffffffffffffffffffffffffffffffffff1681526020016004820160009054906101000a900473ffffffffffffffffffffffffffffffffffffffff1673ffffffffffffffffffffffffffffffffffffffff1673ffffffffffffffffffffffffffffffffffffffff168152602001600582015481526020016006820160009054906101000a900460ff161515151581525050848681518110610b3757610b36611567565b5b6020026020010181905250600185610b4f9190611499565b945050505b8080610b5f906114ef565b915050610921565b508094505050505090565b60606000610b8060016110b6565b90506000610b8e60026110b6565b610b9860016110b6565b610ba291906117ab565b90506000808267ffffffffffffffff811115610bc157610bc0611538565b5b604051908082528060200260200182016040528015610bfa57816020015b610be76110da565b815260200190600190039081610bdf5790505b50905060005b84811015610e4757600073ffffffffffffffffffffffffffffffffffffffff1660056000600184610c319190611499565b815260200190815260200160002060040160009054906101000a900473ffffffffffffffffffffffffffffffffffffffff1673ffffffffffffffffffffffffffffffffffffffff161415610e3457600060056000600184610c929190611499565b81526020019081526020016000206000015490506000600560008381526020019081526020016000209050806040518060e0016040529081600082015481526020016001820160009054906101000a900473ffffffffffffffffffffffffffffffffffffffff1673ffffffffffffffffffffffffffffffffffffffff1673ffffffffffffffffffffffffffffffffffffffff168152602001600282015481526020016003820160009054906101000a900473ffffffffffffffffffffffffffffffffffffffff1673ffffffffffffffffffffffffffffffffffffffff1673ffffffffffffffffffffffffffffffffffffffff1681526020016004820160009054906101000a900473ffffffffffffffffffffffffffffffffffffffff1673ffffffffffffffffffffffffffffffffffffffff1673ffffffffffffffffffffffffffffffffffffffff168152602001600582015481526020016006820160009054906101000a900460ff161515151581525050848681518110610e1757610e16611567565b5b6020026020010181905250600185610e2f9190611499565b945050505b8080610e3f906114ef565b915050610c00565b508094505050505090565b60026000541415610e98576040517f08c379a0000000000000000000000000000000000000000000000000000000008152600401610e8f906115f3565b60405180910390fd5b6002600081905550600060056000838152602001908152602001600020600501549050600060056000848152602001908152602001600020600201549050813414610f18576040517f08c379a0000000000000000000000000000000000000000000000000000000008152600401610f0f90611851565b60405180910390fd5b6005600084815260200190815260200160002060030160009054906101000a900473ffffffffffffffffffffffffffffffffffffffff1673ffffffffffffffffffffffffffffffffffffffff166108fc349081150290604051600060405180830381858888f19350505050158015610f94573d6000803e3d6000fd5b508373ffffffffffffffffffffffffffffffffffffffff166323b872dd3033846040518463ffffffff1660e01b8152600401610fd293929190611720565b600060405180830381600087803b158015610fec57600080fd5b505af1158015611000573d6000803e3d6000fd5b5050505060016005600085815260200190815260200160002060060160006101000a81548160ff02191690831515021790555061103d60026110c4565b600360009054906101000a900473ffffffffffffffffffffffffffffffffffffffff1673ffffffffffffffffffffffffffffffffffffffff166108fc6004549081150290604051600060405180830381858888f193505050501580156110a7573d6000803e3d6000fd5b50505060016000819055505050565b600081600001549050919050565b6001816000016000828254019250508190555050565b6040518060e0016040528060008152602001600073ffffffffffffffffffffffffffffffffffffffff16815260200160008152602001600073ffffffffffffffffffffffffffffffffffffffff168152602001600073ffffffffffffffffffffffffffffffffffffffff168152602001600081526020016000151581525090565b6000819050919050565b61116e8161115b565b82525050565b60006020820190506111896000830184611165565b92915050565b600081519050919050565b600082825260208201905092915050565b6000819050602082019050919050565b6111c48161115b565b82525050565b600073ffffffffffffffffffffffffffffffffffffffff82169050919050565b60006111f5826111ca565b9050919050565b611205816111ea565b82525050565b6000611216826111ca565b9050919050565b6112268161120b565b82525050565b60008115159050919050565b6112418161122c565b82525050565b60e08201600082015161125d60008501826111bb565b50602082015161127060208501826111fc565b50604082015161128360408501826111bb565b506060820151611296606085018261121d565b5060808201516112a9608085018261121d565b5060a08201516112bc60a08501826111bb565b5060c08201516112cf60c0850182611238565b50505050565b60006112e18383611247565b60e08301905092915050565b6000602082019050919050565b60006113058261118f565b61130f818561119a565b935061131a836111ab565b8060005b8381101561134b57815161133288826112d5565b975061133d836112ed565b92505060018101905061131e565b5085935050505092915050565b6000602082019050818103600083015261137281846112fa565b905092915050565b600080fd5b611388816111ea565b811461139357600080fd5b50565b6000813590506113a58161137f565b92915050565b6113b48161115b565b81146113bf57600080fd5b50565b6000813590506113d1816113ab565b92915050565b6000806000606084860312156113f0576113ef61137a565b5b60006113fe86828701611396565b935050602061140f868287016113c2565b9250506040611420868287016113c2565b9150509250925092565b600080604083850312156114415761144061137a565b5b600061144f85828601611396565b9250506020611460858286016113c2565b9150509250929050565b7f4e487b7100000000000000000000000000000000000000000000000000000000600052601160045260246000fd5b60006114a48261115b565b91506114af8361115b565b9250827fffffffffffffffffffffffffffffffffffffffffffffffffffffffffffffffff038211156114e4576114e361146a565b5b828201905092915050565b60006114fa8261115b565b91507fffffffffffffffffffffffffffffffffffffffffffffffffffffffffffffffff82141561152d5761152c61146a565b5b600182019050919050565b7f4e487b7100000000000000000000000000000000000000000000000000000000600052604160045260246000fd5b7f4e487b7100000000000000000000000000000000000000000000000000000000600052603260045260246000fd5b600082825260208201905092915050565b7f5265656e7472616e637947756172643a207265656e7472616e742063616c6c00600082015250565b60006115dd601f83611596565b91506115e8826115a7565b602082019050919050565b6000602082019050818103600083015261160c816115d0565b9050919050565b7f5072696365206d757374206265206174206c6561737420312077656900000000600082015250565b6000611649601c83611596565b915061165482611613565b602082019050919050565b600060208201905081810360008301526116788161163c565b9050919050565b7f5072696365206d75737420626520657175616c20746f206c697374696e67207060008201527f7269636500000000000000000000000000000000000000000000000000000000602082015250565b60006116db602483611596565b91506116e68261167f565b604082019050919050565b6000602082019050818103600083015261170a816116ce565b9050919050565b61171a816111ea565b82525050565b60006060820190506117356000830186611711565b6117426020830185611711565b61174f6040830184611165565b949350505050565b6117608161122c565b82525050565b600060808201905061177b6000830187611711565b6117886020830186611711565b6117956040830185611165565b6117a26060830184611757565b95945050505050565b60006117b68261115b565b91506117c18361115b565b9250828210156117d4576117d361146a565b5b828203905092915050565b7f5072696365207375626d6974207468652061736b696e6720707269636520696e60008201527f206f7264657220746f20636f6d706c6574652074686520707572636861736573602082015250565b600061183b604083611596565b9150611846826117df565b604082019050919050565b6000602082019050818103600083015261186a8161182e565b905091905056fea26469706673582212207951f332fdf49adb4d9977afcc70eb5f3ec74b03ae3abce73c3f7ce7f0b8341b64736f6c634300080b0033",
  "immutableReferences": {},
  "source": "// SPDX-License-Identifier: MIT\r\npragma solidity >=0.4.22 <0.9.0;\r\n\r\nimport \"@openzeppelin/contracts/token/ERC721/ERC721.sol\";\r\nimport \"@openzeppelin/contracts/token/ERC721/IERC721.sol\";\r\nimport \"@openzeppelin/contracts/utils/Counters.sol\";\r\nimport \"@openzeppelin/contracts/access/Ownable.sol\";\r\nimport \"@openzeppelin/contracts/token/ERC721/extensions/ERC721URIStorage.sol\";\r\nimport \"@openzeppelin/contracts/security/ReentrancyGuard.sol\";\r\n\r\ncontract SellNFTs is ReentrancyGuard{   \r\n    using Counters for Counters.Counter;\r\n    Counters.Counter private _ItemIds;\r\n    Counters.Counter private _ItemSold;\r\n\r\n    // owner of contract\r\n    address payable owner;\r\n    // commison amount to creater of item\r\n    uint256 listingPrice = 0.025 ether;\r\n\r\n    // owner of this contract who is deploying this\r\n    constructor() {\r\n        owner = payable(msg.sender);\r\n    }\r\n\r\n    struct MarketItem {\r\n        uint ItemId;\r\n        address nftContract;\r\n        uint256 tokenId;\r\n        address payable seller;\r\n        address payable owner;\r\n        uint256 price;\r\n        bool sold;\r\n    }\r\n    // fetch market item using its id\r\n    mapping(uint256 => MarketItem) private idToMarketItem;\r\n\r\n    // having event when market item created\r\n    // this event going to match maketItem preety well\r\n    event MarketItemCreated (\r\n        uint indexed ItemId,\r\n        address indexed nftContract,\r\n        uint256 indexed tokenId,\r\n        address  seller,\r\n        address  owner,\r\n        uint256 price,\r\n        bool sold\r\n    );\r\n\r\n    // return listing price\r\n    function getListingPrice() public view returns (uint256) {\r\n        return listingPrice;\r\n    }\r\n    \r\n    // putting item on sell\r\n    // nonReentrant modifier prevents nonreentrant attack\r\n    function createMarketItem(address nftContract, uint256 tokenId, uint256 price) public payable nonReentrant {\r\n        require(price >0, \"Price must be at least 1 wei\");\r\n        // persion is sending listingPrice along with the transaction\r\n        require(msg.value == listingPrice, \"Price must be equal to listing price\");\r\n\r\n        _ItemIds.increment();\r\n        uint256 ItemId = _ItemIds.current();\r\n        \r\n        // creating market item\r\n        idToMarketItem[ItemId] = MarketItem(\r\n            ItemId,\r\n            nftContract,\r\n            tokenId,\r\n            payable(msg.sender),\r\n            // address(0) empty address\r\n            payable(address(this)),\r\n            price,\r\n            false\r\n        );\r\n\r\n        // transfer owner of this contract to it self\r\n        IERC721(nftContract).transferFrom(msg.sender, address(this), tokenId);\r\n\r\n        // emit market item\r\n        emit MarketItemCreated(\r\n            ItemId,\r\n            nftContract,\r\n            tokenId,\r\n            msg.sender,\r\n            address(this),\r\n            price,\r\n            false\r\n        );\r\n    }\r\n\r\n    // selling item to seller\r\n    function createMarketSale(address nftContract, uint256 itemId) public payable nonReentrant{\r\n        uint price = idToMarketItem[itemId].price;\r\n        uint tokenId = idToMarketItem[itemId].tokenId;\r\n\r\n        // check sending price is equal to item price \r\n        require(msg.value == price, \"Price submit the asking price in order to complete the purchases\");\r\n\r\n        // transnfer the value of the transaction to the seller\r\n        idToMarketItem[itemId].seller.transfer(msg.value);\r\n        \r\n        // transfer owner of this contract to buyer\r\n        IERC721(nftContract).transferFrom(address(this), msg.sender, tokenId);\r\n\r\n        idToMarketItem[itemId].sold = true;\r\n        _ItemSold.increment();\r\n\r\n        // tranfering the amount that person had listed item for to the contract owner\r\n        payable(owner).transfer(listingPrice);\r\n\r\n    }\r\n\r\n    // fetch all unsold NFTs\r\n    function fetchMarketItem() public view returns (MarketItem[] memory){\r\n        uint itemCount = _ItemIds.current();\r\n        uint unsoldItemCount = _ItemIds.current() - _ItemSold.current();\r\n\r\n        uint currentIndex = 0;\r\n\r\n        // create an empty array\r\n        MarketItem[] memory items = new MarketItem[](unsoldItemCount);\r\n        for(uint i = 0; i < itemCount; i++){\r\n            // if this item is unsold\r\n            if(idToMarketItem[i + 1].owner == address(0)) {\r\n                uint currentId = idToMarketItem[i + 1].ItemId;\r\n                MarketItem storage currentItem = idToMarketItem[currentId];\r\n                // storing item in this index\r\n                items[currentIndex] = currentItem;\r\n                currentIndex += 1;\r\n            }\r\n        }\r\n        // return total unsold item\r\n        return items;\r\n    }\r\n\r\n    // fetch all my items(NFTs)\r\n    function fetchMyNFTs() public view returns (MarketItem[] memory){\r\n        uint totalItemCount = _ItemIds.current();\r\n        // count my total item\r\n        uint itemcount = 0;\r\n        uint currentIndex = 0;\r\n\r\n        for(uint i = 0; i < totalItemCount; i++){\r\n            // if this item's owner is current address\r\n            if(idToMarketItem[i + 1].owner == msg.sender) {\r\n                itemcount += 1;\r\n            }\r\n        }\r\n\r\n        // create an empty array\r\n        MarketItem[] memory items = new MarketItem[](itemcount);\r\n        for(uint i = 0; i < totalItemCount; i++){\r\n            // if this item's owner is current address\r\n            if(idToMarketItem[i + 1].owner == msg.sender) {\r\n                uint currentId = idToMarketItem[i + 1].ItemId;\r\n                MarketItem storage currentItem = idToMarketItem[currentId];\r\n                // storing item in this index\r\n                items[currentIndex] = currentItem;\r\n                currentIndex += 1;\r\n            }\r\n        }\r\n        return items;\r\n\r\n    }\r\n\r\n    // return items which is created by this user\r\n    function fetchItemCreated() public view returns (MarketItem[] memory){\r\n        uint totalItemCount = _ItemIds.current();\r\n        uint itemcount = 0;\r\n        uint currentIndex = 0;\r\n\r\n        for(uint i = 0; i < totalItemCount; i++){\r\n            // if this item's seleer os current address\r\n            if(idToMarketItem[i + 1].seller == msg.sender) {\r\n                itemcount += 1;\r\n            }\r\n        }\r\n\r\n        // create an empty array\r\n        MarketItem[] memory items = new MarketItem[](itemcount);\r\n        for(uint i = 0; i < totalItemCount; i++){\r\n            // if this item's seleer os current address\r\n            if(idToMarketItem[i + 1].seller == msg.sender) {\r\n                uint currentId = idToMarketItem[i + 1].ItemId;\r\n                MarketItem storage currentItem = idToMarketItem[currentId];\r\n                // storing item in this index\r\n                items[currentIndex] = currentItem;\r\n                currentIndex += 1;\r\n            }\r\n        }\r\n        return items;\r\n    }\r\n\r\n}",
  "sourcePath": "D:\\Block Chain\\NFTMarketPlace\\contracts\\SellNFTs.sol",
  "compiler": {
    "name": "solc",
    "version": "0.8.11+commit.d7f03943.Emscripten.clang"
  },
  "schemaVersion": "3.4.5",
  "updatedAt": "2022-04-03T10:12:53.370Z",
  "devdoc": {
    "kind": "dev",
    "methods": {},
    "version": 1
  },
  "userdoc": {
    "kind": "user",
    "methods": {},
    "version": 1
  }
}